{
	"Counter.sol": {
		"Counter": {
			"abi": [
				{
					"inputs": [
						{
							"internalType": "uint256",
							"name": "_count",
							"type": "uint256"
						},
						{
							"internalType": "string",
							"name": "_name",
							"type": "string"
						}
					],
					"stateMutability": "nonpayable",
					"type": "constructor"
				},
				{
					"inputs": [],
					"name": "count",
					"outputs": [
						{
							"internalType": "uint256",
							"name": "",
							"type": "uint256"
						}
					],
					"stateMutability": "view",
					"type": "function"
				},
				{
					"inputs": [],
					"name": "decrement",
					"outputs": [],
					"stateMutability": "nonpayable",
					"type": "function"
				},
				{
					"inputs": [],
					"name": "increament",
					"outputs": [],
					"stateMutability": "nonpayable",
					"type": "function"
				},
				{
					"inputs": [],
					"name": "name",
					"outputs": [
						{
							"internalType": "string",
							"name": "",
							"type": "string"
						}
					],
					"stateMutability": "view",
					"type": "function"
				},
				{
					"inputs": [
						{
							"internalType": "string",
							"name": "_name",
							"type": "string"
						}
					],
					"name": "setName",
					"outputs": [
						{
							"internalType": "string",
							"name": "newName",
							"type": "string"
						}
					],
					"stateMutability": "nonpayable",
					"type": "function"
				}
			],
			"devdoc": {
				"kind": "dev",
				"methods": {},
				"version": 1
			},
			"evm": {
				"assembly": "    /* \"Counter.sol\":63:569  contract Counter {... */\n  mstore(0x40, 0x80)\n    /* \"Counter.sol\":106:107  0 */\n  0x00\n    /* \"Counter.sol\":86:107  uint public count = 0 */\n  dup1\n  sstore\n    /* \"Counter.sol\":113:136  string public name = \"\" */\n  mload(0x40)\n  dup1\n  0x20\n  add\n  0x40\n  mstore\n  dup1\n  0x00\n  dup2\n  mstore\n  pop\n  0x01\n  swap1\n  dup2\n  tag_1\n  swap2\n  swap1\n  tag_2\n  jump\t// in\ntag_1:\n  pop\n    /* \"Counter.sol\":143:243  constructor (uint _count, string memory _name) {... */\n  callvalue\n  dup1\n  iszero\n  tag_3\n  jumpi\n  0x00\n  dup1\n  revert\ntag_3:\n  pop\n  mload(0x40)\n  sub(codesize, bytecodeSize)\n  dup1\n  bytecodeSize\n  dup4\n  codecopy\n  dup2\n  dup2\n  add\n  0x40\n  mstore\n  dup2\n  add\n  swap1\n  tag_4\n  swap2\n  swap1\n  tag_5\n  jump\t// in\ntag_4:\n    /* \"Counter.sol\":207:212  _name */\n  dup1\n    /* \"Counter.sol\":200:204  name */\n  0x01\n    /* \"Counter.sol\":200:212  name = _name */\n  swap1\n  dup2\n  tag_8\n  swap2\n  swap1\n  tag_2\n  jump\t// in\ntag_8:\n  pop\n    /* \"Counter.sol\":230:236  _count */\n  dup2\n    /* \"Counter.sol\":222:227  count */\n  0x00\n    /* \"Counter.sol\":222:236  count = _count */\n  dup2\n  swap1\n  sstore\n  pop\n    /* \"Counter.sol\":143:243  constructor (uint _count, string memory _name) {... */\n  pop\n  pop\n    /* \"Counter.sol\":63:569  contract Counter {... */\n  jump(tag_9)\n    /* \"#utility.yul\":7:106   */\ntag_10:\n    /* \"#utility.yul\":59:65   */\n  0x00\n    /* \"#utility.yul\":93:98   */\n  dup2\n    /* \"#utility.yul\":87:99   */\n  mload\n    /* \"#utility.yul\":77:99   */\n  swap1\n  pop\n    /* \"#utility.yul\":7:106   */\n  swap2\n  swap1\n  pop\n  jump\t// out\n    /* \"#utility.yul\":112:292   */\ntag_11:\n    /* \"#utility.yul\":160:237   */\n  0x4e487b7100000000000000000000000000000000000000000000000000000000\n    /* \"#utility.yul\":157:158   */\n  0x00\n    /* \"#utility.yul\":150:238   */\n  mstore\n    /* \"#utility.yul\":257:261   */\n  0x41\n    /* \"#utility.yul\":254:255   */\n  0x04\n    /* \"#utility.yul\":247:262   */\n  mstore\n    /* \"#utility.yul\":281:285   */\n  0x24\n    /* \"#utility.yul\":278:279   */\n  0x00\n    /* \"#utility.yul\":271:286   */\n  revert\n    /* \"#utility.yul\":298:478   */\ntag_12:\n    /* \"#utility.yul\":346:423   */\n  0x4e487b7100000000000000000000000000000000000000000000000000000000\n    /* \"#utility.yul\":343:344   */\n  0x00\n    /* \"#utility.yul\":336:424   */\n  mstore\n    /* \"#utility.yul\":443:447   */\n  0x22\n    /* \"#utility.yul\":440:441   */\n  0x04\n    /* \"#utility.yul\":433:448   */\n  mstore\n    /* \"#utility.yul\":467:471   */\n  0x24\n    /* \"#utility.yul\":464:465   */\n  0x00\n    /* \"#utility.yul\":457:472   */\n  revert\n    /* \"#utility.yul\":484:804   */\ntag_13:\n    /* \"#utility.yul\":528:534   */\n  0x00\n    /* \"#utility.yul\":565:566   */\n  0x02\n    /* \"#utility.yul\":559:563   */\n  dup3\n    /* \"#utility.yul\":555:567   */\n  div\n    /* \"#utility.yul\":545:567   */\n  swap1\n  pop\n    /* \"#utility.yul\":612:613   */\n  0x01\n    /* \"#utility.yul\":606:610   */\n  dup3\n    /* \"#utility.yul\":602:614   */\n  and\n    /* \"#utility.yul\":633:651   */\n  dup1\n    /* \"#utility.yul\":623:704   */\n  tag_49\n  jumpi\n    /* \"#utility.yul\":689:693   */\n  0x7f\n    /* \"#utility.yul\":681:687   */\n  dup3\n    /* \"#utility.yul\":677:694   */\n  and\n    /* \"#utility.yul\":667:694   */\n  swap2\n  pop\n    /* \"#utility.yul\":623:704   */\ntag_49:\n    /* \"#utility.yul\":751:753   */\n  0x20\n    /* \"#utility.yul\":743:749   */\n  dup3\n    /* \"#utility.yul\":740:754   */\n  lt\n    /* \"#utility.yul\":720:738   */\n  dup2\n    /* \"#utility.yul\":717:755   */\n  sub\n    /* \"#utility.yul\":714:798   */\n  tag_50\n  jumpi\n    /* \"#utility.yul\":770:788   */\n  tag_51\n  tag_12\n  jump\t// in\ntag_51:\n    /* \"#utility.yul\":714:798   */\ntag_50:\n    /* \"#utility.yul\":535:804   */\n  pop\n    /* \"#utility.yul\":484:804   */\n  swap2\n  swap1\n  pop\n  jump\t// out\n    /* \"#utility.yul\":810:951   */\ntag_14:\n    /* \"#utility.yul\":859:863   */\n  0x00\n    /* \"#utility.yul\":882:885   */\n  dup2\n    /* \"#utility.yul\":874:885   */\n  swap1\n  pop\n    /* \"#utility.yul\":905:908   */\n  dup2\n    /* \"#utility.yul\":902:903   */\n  0x00\n    /* \"#utility.yul\":895:909   */\n  mstore\n    /* \"#utility.yul\":939:943   */\n  0x20\n    /* \"#utility.yul\":936:937   */\n  0x00\n    /* \"#utility.yul\":926:944   */\n  keccak256\n    /* \"#utility.yul\":918:944   */\n  swap1\n  pop\n    /* \"#utility.yul\":810:951   */\n  swap2\n  swap1\n  pop\n  jump\t// out\n    /* \"#utility.yul\":957:1050   */\ntag_15:\n    /* \"#utility.yul\":994:1000   */\n  0x00\n    /* \"#utility.yul\":1041:1043   */\n  0x20\n    /* \"#utility.yul\":1036:1038   */\n  0x1f\n    /* \"#utility.yul\":1029:1034   */\n  dup4\n    /* \"#utility.yul\":1025:1039   */\n  add\n    /* \"#utility.yul\":1021:1044   */\n  div\n    /* \"#utility.yul\":1011:1044   */\n  swap1\n  pop\n    /* \"#utility.yul\":957:1050   */\n  swap2\n  swap1\n  pop\n  jump\t// out\n    /* \"#utility.yul\":1056:1163   */\ntag_16:\n    /* \"#utility.yul\":1100:1108   */\n  0x00\n    /* \"#utility.yul\":1150:1155   */\n  dup3\n    /* \"#utility.yul\":1144:1148   */\n  dup3\n    /* \"#utility.yul\":1140:1156   */\n  shl\n    /* \"#utility.yul\":1119:1156   */\n  swap1\n  pop\n    /* \"#utility.yul\":1056:1163   */\n  swap3\n  swap2\n  pop\n  pop\n  jump\t// out\n    /* \"#utility.yul\":1169:1562   */\ntag_17:\n    /* \"#utility.yul\":1238:1244   */\n  0x00\n    /* \"#utility.yul\":1288:1289   */\n  0x08\n    /* \"#utility.yul\":1276:1286   */\n  dup4\n    /* \"#utility.yul\":1272:1290   */\n  mul\n    /* \"#utility.yul\":1311:1408   */\n  tag_56\n    /* \"#utility.yul\":1341:1407   */\n  0xffffffffffffffffffffffffffffffffffffffffffffffffffffffffffffffff\n    /* \"#utility.yul\":1330:1339   */\n  dup3\n    /* \"#utility.yul\":1311:1408   */\n  tag_16\n  jump\t// in\ntag_56:\n    /* \"#utility.yul\":1429:1468   */\n  tag_57\n    /* \"#utility.yul\":1459:1467   */\n  dup7\n    /* \"#utility.yul\":1448:1457   */\n  dup4\n    /* \"#utility.yul\":1429:1468   */\n  tag_16\n  jump\t// in\ntag_57:\n    /* \"#utility.yul\":1417:1468   */\n  swap6\n  pop\n    /* \"#utility.yul\":1501:1505   */\n  dup1\n    /* \"#utility.yul\":1497:1506   */\n  not\n    /* \"#utility.yul\":1490:1495   */\n  dup5\n    /* \"#utility.yul\":1486:1507   */\n  and\n    /* \"#utility.yul\":1477:1507   */\n  swap4\n  pop\n    /* \"#utility.yul\":1550:1554   */\n  dup1\n    /* \"#utility.yul\":1540:1548   */\n  dup7\n    /* \"#utility.yul\":1536:1555   */\n  and\n    /* \"#utility.yul\":1529:1534   */\n  dup5\n    /* \"#utility.yul\":1526:1556   */\n  or\n    /* \"#utility.yul\":1516:1556   */\n  swap3\n  pop\n    /* \"#utility.yul\":1245:1562   */\n  pop\n  pop\n    /* \"#utility.yul\":1169:1562   */\n  swap4\n  swap3\n  pop\n  pop\n  pop\n  jump\t// out\n    /* \"#utility.yul\":1568:1645   */\ntag_18:\n    /* \"#utility.yul\":1605:1612   */\n  0x00\n    /* \"#utility.yul\":1634:1639   */\n  dup2\n    /* \"#utility.yul\":1623:1639   */\n  swap1\n  pop\n    /* \"#utility.yul\":1568:1645   */\n  swap2\n  swap1\n  pop\n  jump\t// out\n    /* \"#utility.yul\":1651:1711   */\ntag_19:\n    /* \"#utility.yul\":1679:1682   */\n  0x00\n    /* \"#utility.yul\":1700:1705   */\n  dup2\n    /* \"#utility.yul\":1693:1705   */\n  swap1\n  pop\n    /* \"#utility.yul\":1651:1711   */\n  swap2\n  swap1\n  pop\n  jump\t// out\n    /* \"#utility.yul\":1717:1859   */\ntag_20:\n    /* \"#utility.yul\":1767:1776   */\n  0x00\n    /* \"#utility.yul\":1800:1853   */\n  tag_61\n    /* \"#utility.yul\":1818:1852   */\n  tag_62\n    /* \"#utility.yul\":1827:1851   */\n  tag_63\n    /* \"#utility.yul\":1845:1850   */\n  dup5\n    /* \"#utility.yul\":1827:1851   */\n  tag_18\n  jump\t// in\ntag_63:\n    /* \"#utility.yul\":1818:1852   */\n  tag_19\n  jump\t// in\ntag_62:\n    /* \"#utility.yul\":1800:1853   */\n  tag_18\n  jump\t// in\ntag_61:\n    /* \"#utility.yul\":1787:1853   */\n  swap1\n  pop\n    /* \"#utility.yul\":1717:1859   */\n  swap2\n  swap1\n  pop\n  jump\t// out\n    /* \"#utility.yul\":1865:1940   */\ntag_21:\n    /* \"#utility.yul\":1908:1911   */\n  0x00\n    /* \"#utility.yul\":1929:1934   */\n  dup2\n    /* \"#utility.yul\":1922:1934   */\n  swap1\n  pop\n    /* \"#utility.yul\":1865:1940   */\n  swap2\n  swap1\n  pop\n  jump\t// out\n    /* \"#utility.yul\":1946:2215   */\ntag_22:\n    /* \"#utility.yul\":2056:2095   */\n  tag_66\n    /* \"#utility.yul\":2087:2094   */\n  dup4\n    /* \"#utility.yul\":2056:2095   */\n  tag_20\n  jump\t// in\ntag_66:\n    /* \"#utility.yul\":2117:2208   */\n  tag_67\n    /* \"#utility.yul\":2166:2207   */\n  tag_68\n    /* \"#utility.yul\":2190:2206   */\n  dup3\n    /* \"#utility.yul\":2166:2207   */\n  tag_21\n  jump\t// in\ntag_68:\n    /* \"#utility.yul\":2158:2164   */\n  dup5\n    /* \"#utility.yul\":2151:2155   */\n  dup5\n    /* \"#utility.yul\":2145:2156   */\n  sload\n    /* \"#utility.yul\":2117:2208   */\n  tag_17\n  jump\t// in\ntag_67:\n    /* \"#utility.yul\":2111:2115   */\n  dup3\n    /* \"#utility.yul\":2104:2209   */\n  sstore\n    /* \"#utility.yul\":2022:2215   */\n  pop\n    /* \"#utility.yul\":1946:2215   */\n  pop\n  pop\n  pop\n  jump\t// out\n    /* \"#utility.yul\":2221:2294   */\ntag_23:\n    /* \"#utility.yul\":2266:2269   */\n  0x00\n    /* \"#utility.yul\":2221:2294   */\n  swap1\n  jump\t// out\n    /* \"#utility.yul\":2300:2489   */\ntag_24:\n    /* \"#utility.yul\":2377:2409   */\n  tag_71\n  tag_23\n  jump\t// in\ntag_71:\n    /* \"#utility.yul\":2418:2483   */\n  tag_72\n    /* \"#utility.yul\":2476:2482   */\n  dup2\n    /* \"#utility.yul\":2468:2474   */\n  dup5\n    /* \"#utility.yul\":2462:2466   */\n  dup5\n    /* \"#utility.yul\":2418:2483   */\n  tag_22\n  jump\t// in\ntag_72:\n    /* \"#utility.yul\":2353:2489   */\n  pop\n    /* \"#utility.yul\":2300:2489   */\n  pop\n  pop\n  jump\t// out\n    /* \"#utility.yul\":2495:2681   */\ntag_25:\n    /* \"#utility.yul\":2555:2675   */\ntag_74:\n    /* \"#utility.yul\":2572:2575   */\n  dup2\n    /* \"#utility.yul\":2565:2570   */\n  dup2\n    /* \"#utility.yul\":2562:2576   */\n  lt\n    /* \"#utility.yul\":2555:2675   */\n  iszero\n  tag_76\n  jumpi\n    /* \"#utility.yul\":2626:2665   */\n  tag_77\n    /* \"#utility.yul\":2663:2664   */\n  0x00\n    /* \"#utility.yul\":2656:2661   */\n  dup3\n    /* \"#utility.yul\":2626:2665   */\n  tag_24\n  jump\t// in\ntag_77:\n    /* \"#utility.yul\":2599:2600   */\n  0x01\n    /* \"#utility.yul\":2592:2597   */\n  dup2\n    /* \"#utility.yul\":2588:2601   */\n  add\n    /* \"#utility.yul\":2579:2601   */\n  swap1\n  pop\n    /* \"#utility.yul\":2555:2675   */\n  jump(tag_74)\ntag_76:\n    /* \"#utility.yul\":2495:2681   */\n  pop\n  pop\n  jump\t// out\n    /* \"#utility.yul\":2687:3230   */\ntag_26:\n    /* \"#utility.yul\":2788:2790   */\n  0x1f\n    /* \"#utility.yul\":2783:2786   */\n  dup3\n    /* \"#utility.yul\":2780:2791   */\n  gt\n    /* \"#utility.yul\":2777:3223   */\n  iszero\n  tag_79\n  jumpi\n    /* \"#utility.yul\":2822:2860   */\n  tag_80\n    /* \"#utility.yul\":2854:2859   */\n  dup2\n    /* \"#utility.yul\":2822:2860   */\n  tag_14\n  jump\t// in\ntag_80:\n    /* \"#utility.yul\":2906:2935   */\n  tag_81\n    /* \"#utility.yul\":2924:2934   */\n  dup5\n    /* \"#utility.yul\":2906:2935   */\n  tag_15\n  jump\t// in\ntag_81:\n    /* \"#utility.yul\":2896:2904   */\n  dup2\n    /* \"#utility.yul\":2892:2936   */\n  add\n    /* \"#utility.yul\":3089:3091   */\n  0x20\n    /* \"#utility.yul\":3077:3087   */\n  dup6\n    /* \"#utility.yul\":3074:3092   */\n  lt\n    /* \"#utility.yul\":3071:3120   */\n  iszero\n  tag_82\n  jumpi\n    /* \"#utility.yul\":3110:3118   */\n  dup2\n    /* \"#utility.yul\":3095:3118   */\n  swap1\n  pop\n    /* \"#utility.yul\":3071:3120   */\ntag_82:\n    /* \"#utility.yul\":3133:3213   */\n  tag_83\n    /* \"#utility.yul\":3189:3211   */\n  tag_84\n    /* \"#utility.yul\":3207:3210   */\n  dup6\n    /* \"#utility.yul\":3189:3211   */\n  tag_15\n  jump\t// in\ntag_84:\n    /* \"#utility.yul\":3179:3187   */\n  dup4\n    /* \"#utility.yul\":3175:3212   */\n  add\n    /* \"#utility.yul\":3162:3173   */\n  dup3\n    /* \"#utility.yul\":3133:3213   */\n  tag_25\n  jump\t// in\ntag_83:\n    /* \"#utility.yul\":2792:3223   */\n  pop\n  pop\n    /* \"#utility.yul\":2777:3223   */\ntag_79:\n    /* \"#utility.yul\":2687:3230   */\n  pop\n  pop\n  pop\n  jump\t// out\n    /* \"#utility.yul\":3236:3353   */\ntag_27:\n    /* \"#utility.yul\":3290:3298   */\n  0x00\n    /* \"#utility.yul\":3340:3345   */\n  dup3\n    /* \"#utility.yul\":3334:3338   */\n  dup3\n    /* \"#utility.yul\":3330:3346   */\n  shr\n    /* \"#utility.yul\":3309:3346   */\n  swap1\n  pop\n    /* \"#utility.yul\":3236:3353   */\n  swap3\n  swap2\n  pop\n  pop\n  jump\t// out\n    /* \"#utility.yul\":3359:3528   */\ntag_28:\n    /* \"#utility.yul\":3403:3409   */\n  0x00\n    /* \"#utility.yul\":3436:3487   */\n  tag_87\n    /* \"#utility.yul\":3484:3485   */\n  0x00\n    /* \"#utility.yul\":3480:3486   */\n  not\n    /* \"#utility.yul\":3472:3477   */\n  dup5\n    /* \"#utility.yul\":3469:3470   */\n  0x08\n    /* \"#utility.yul\":3465:3478   */\n  mul\n    /* \"#utility.yul\":3436:3487   */\n  tag_27\n  jump\t// in\ntag_87:\n    /* \"#utility.yul\":3432:3488   */\n  not\n    /* \"#utility.yul\":3517:3521   */\n  dup1\n    /* \"#utility.yul\":3511:3515   */\n  dup4\n    /* \"#utility.yul\":3507:3522   */\n  and\n    /* \"#utility.yul\":3497:3522   */\n  swap2\n  pop\n    /* \"#utility.yul\":3410:3528   */\n  pop\n    /* \"#utility.yul\":3359:3528   */\n  swap3\n  swap2\n  pop\n  pop\n  jump\t// out\n    /* \"#utility.yul\":3533:3828   */\ntag_29:\n    /* \"#utility.yul\":3609:3613   */\n  0x00\n    /* \"#utility.yul\":3755:3784   */\n  tag_89\n    /* \"#utility.yul\":3780:3783   */\n  dup4\n    /* \"#utility.yul\":3774:3778   */\n  dup4\n    /* \"#utility.yul\":3755:3784   */\n  tag_28\n  jump\t// in\ntag_89:\n    /* \"#utility.yul\":3747:3784   */\n  swap2\n  pop\n    /* \"#utility.yul\":3817:3820   */\n  dup3\n    /* \"#utility.yul\":3814:3815   */\n  0x02\n    /* \"#utility.yul\":3810:3821   */\n  mul\n    /* \"#utility.yul\":3804:3808   */\n  dup3\n    /* \"#utility.yul\":3801:3822   */\n  or\n    /* \"#utility.yul\":3793:3822   */\n  swap1\n  pop\n    /* \"#utility.yul\":3533:3828   */\n  swap3\n  swap2\n  pop\n  pop\n  jump\t// out\n    /* \"#utility.yul\":3833:5228   */\ntag_2:\n    /* \"#utility.yul\":3950:3987   */\n  tag_91\n    /* \"#utility.yul\":3983:3986   */\n  dup3\n    /* \"#utility.yul\":3950:3987   */\n  tag_10\n  jump\t// in\ntag_91:\n    /* \"#utility.yul\":4052:4070   */\n  0xffffffffffffffff\n    /* \"#utility.yul\":4044:4050   */\n  dup2\n    /* \"#utility.yul\":4041:4071   */\n  gt\n    /* \"#utility.yul\":4038:4094   */\n  iszero\n  tag_92\n  jumpi\n    /* \"#utility.yul\":4074:4092   */\n  tag_93\n  tag_11\n  jump\t// in\ntag_93:\n    /* \"#utility.yul\":4038:4094   */\ntag_92:\n    /* \"#utility.yul\":4118:4156   */\n  tag_94\n    /* \"#utility.yul\":4150:4154   */\n  dup3\n    /* \"#utility.yul\":4144:4155   */\n  sload\n    /* \"#utility.yul\":4118:4156   */\n  tag_13\n  jump\t// in\ntag_94:\n    /* \"#utility.yul\":4203:4270   */\n  tag_95\n    /* \"#utility.yul\":4263:4269   */\n  dup3\n    /* \"#utility.yul\":4255:4261   */\n  dup3\n    /* \"#utility.yul\":4249:4253   */\n  dup6\n    /* \"#utility.yul\":4203:4270   */\n  tag_26\n  jump\t// in\ntag_95:\n    /* \"#utility.yul\":4297:4298   */\n  0x00\n    /* \"#utility.yul\":4321:4325   */\n  0x20\n    /* \"#utility.yul\":4308:4325   */\n  swap1\n  pop\n    /* \"#utility.yul\":4353:4355   */\n  0x1f\n    /* \"#utility.yul\":4345:4351   */\n  dup4\n    /* \"#utility.yul\":4342:4356   */\n  gt\n    /* \"#utility.yul\":4370:4371   */\n  0x01\n    /* \"#utility.yul\":4365:4983   */\n  dup2\n  eq\n  tag_97\n  jumpi\n    /* \"#utility.yul\":5027:5028   */\n  0x00\n    /* \"#utility.yul\":5044:5050   */\n  dup5\n    /* \"#utility.yul\":5041:5118   */\n  iszero\n  tag_98\n  jumpi\n    /* \"#utility.yul\":5093:5102   */\n  dup3\n    /* \"#utility.yul\":5088:5091   */\n  dup8\n    /* \"#utility.yul\":5084:5103   */\n  add\n    /* \"#utility.yul\":5078:5104   */\n  mload\n    /* \"#utility.yul\":5069:5104   */\n  swap1\n  pop\n    /* \"#utility.yul\":5041:5118   */\ntag_98:\n    /* \"#utility.yul\":5144:5211   */\n  tag_99\n    /* \"#utility.yul\":5204:5210   */\n  dup6\n    /* \"#utility.yul\":5197:5202   */\n  dup3\n    /* \"#utility.yul\":5144:5211   */\n  tag_29\n  jump\t// in\ntag_99:\n    /* \"#utility.yul\":5138:5142   */\n  dup7\n    /* \"#utility.yul\":5131:5212   */\n  sstore\n    /* \"#utility.yul\":5000:5222   */\n  pop\n    /* \"#utility.yul\":4335:5222   */\n  jump(tag_96)\n    /* \"#utility.yul\":4365:4983   */\ntag_97:\n    /* \"#utility.yul\":4417:4421   */\n  0x1f\n    /* \"#utility.yul\":4413:4422   */\n  not\n    /* \"#utility.yul\":4405:4411   */\n  dup5\n    /* \"#utility.yul\":4401:4423   */\n  and\n    /* \"#utility.yul\":4451:4488   */\n  tag_100\n    /* \"#utility.yul\":4483:4487   */\n  dup7\n    /* \"#utility.yul\":4451:4488   */\n  tag_14\n  jump\t// in\ntag_100:\n    /* \"#utility.yul\":4510:4511   */\n  0x00\n    /* \"#utility.yul\":4524:4732   */\ntag_101:\n    /* \"#utility.yul\":4538:4545   */\n  dup3\n    /* \"#utility.yul\":4535:4536   */\n  dup2\n    /* \"#utility.yul\":4532:4546   */\n  lt\n    /* \"#utility.yul\":4524:4732   */\n  iszero\n  tag_103\n  jumpi\n    /* \"#utility.yul\":4617:4626   */\n  dup5\n    /* \"#utility.yul\":4612:4615   */\n  dup10\n    /* \"#utility.yul\":4608:4627   */\n  add\n    /* \"#utility.yul\":4602:4628   */\n  mload\n    /* \"#utility.yul\":4594:4600   */\n  dup3\n    /* \"#utility.yul\":4587:4629   */\n  sstore\n    /* \"#utility.yul\":4668:4669   */\n  0x01\n    /* \"#utility.yul\":4660:4666   */\n  dup3\n    /* \"#utility.yul\":4656:4670   */\n  add\n    /* \"#utility.yul\":4646:4670   */\n  swap2\n  pop\n    /* \"#utility.yul\":4715:4717   */\n  0x20\n    /* \"#utility.yul\":4704:4713   */\n  dup6\n    /* \"#utility.yul\":4700:4718   */\n  add\n    /* \"#utility.yul\":4687:4718   */\n  swap5\n  pop\n    /* \"#utility.yul\":4561:4565   */\n  0x20\n    /* \"#utility.yul\":4558:4559   */\n  dup2\n    /* \"#utility.yul\":4554:4566   */\n  add\n    /* \"#utility.yul\":4549:4566   */\n  swap1\n  pop\n    /* \"#utility.yul\":4524:4732   */\n  jump(tag_101)\ntag_103:\n    /* \"#utility.yul\":4760:4766   */\n  dup7\n    /* \"#utility.yul\":4751:4758   */\n  dup4\n    /* \"#utility.yul\":4748:4767   */\n  lt\n    /* \"#utility.yul\":4745:4924   */\n  iszero\n  tag_104\n  jumpi\n    /* \"#utility.yul\":4818:4827   */\n  dup5\n    /* \"#utility.yul\":4813:4816   */\n  dup10\n    /* \"#utility.yul\":4809:4828   */\n  add\n    /* \"#utility.yul\":4803:4829   */\n  mload\n    /* \"#utility.yul\":4861:4909   */\n  tag_105\n    /* \"#utility.yul\":4903:4907   */\n  0x1f\n    /* \"#utility.yul\":4895:4901   */\n  dup10\n    /* \"#utility.yul\":4891:4908   */\n  and\n    /* \"#utility.yul\":4880:4889   */\n  dup3\n    /* \"#utility.yul\":4861:4909   */\n  tag_28\n  jump\t// in\ntag_105:\n    /* \"#utility.yul\":4853:4859   */\n  dup4\n    /* \"#utility.yul\":4846:4910   */\n  sstore\n    /* \"#utility.yul\":4768:4924   */\n  pop\n    /* \"#utility.yul\":4745:4924   */\ntag_104:\n    /* \"#utility.yul\":4970:4971   */\n  0x01\n    /* \"#utility.yul\":4966:4967   */\n  0x02\n    /* \"#utility.yul\":4958:4964   */\n  dup9\n    /* \"#utility.yul\":4954:4968   */\n  mul\n    /* \"#utility.yul\":4950:4972   */\n  add\n    /* \"#utility.yul\":4944:4948   */\n  dup9\n    /* \"#utility.yul\":4937:4973   */\n  sstore\n    /* \"#utility.yul\":4372:4983   */\n  pop\n  pop\n  pop\n    /* \"#utility.yul\":4335:5222   */\ntag_96:\n  pop\n    /* \"#utility.yul\":3925:5228   */\n  pop\n  pop\n  pop\n    /* \"#utility.yul\":3833:5228   */\n  pop\n  pop\n  jump\t// out\n    /* \"#utility.yul\":5234:5309   */\ntag_30:\n    /* \"#utility.yul\":5267:5273   */\n  0x00\n    /* \"#utility.yul\":5300:5302   */\n  0x40\n    /* \"#utility.yul\":5294:5303   */\n  mload\n    /* \"#utility.yul\":5284:5303   */\n  swap1\n  pop\n    /* \"#utility.yul\":5234:5309   */\n  swap1\n  jump\t// out\n    /* \"#utility.yul\":5315:5432   */\ntag_31:\n    /* \"#utility.yul\":5424:5425   */\n  0x00\n    /* \"#utility.yul\":5421:5422   */\n  dup1\n    /* \"#utility.yul\":5414:5426   */\n  revert\n    /* \"#utility.yul\":5438:5555   */\ntag_32:\n    /* \"#utility.yul\":5547:5548   */\n  0x00\n    /* \"#utility.yul\":5544:5545   */\n  dup1\n    /* \"#utility.yul\":5537:5549   */\n  revert\n    /* \"#utility.yul\":5561:5683   */\ntag_33:\n    /* \"#utility.yul\":5634:5658   */\n  tag_110\n    /* \"#utility.yul\":5652:5657   */\n  dup2\n    /* \"#utility.yul\":5634:5658   */\n  tag_18\n  jump\t// in\ntag_110:\n    /* \"#utility.yul\":5627:5632   */\n  dup2\n    /* \"#utility.yul\":5624:5659   */\n  eq\n    /* \"#utility.yul\":5614:5677   */\n  tag_111\n  jumpi\n    /* \"#utility.yul\":5673:5674   */\n  0x00\n    /* \"#utility.yul\":5670:5671   */\n  dup1\n    /* \"#utility.yul\":5663:5675   */\n  revert\n    /* \"#utility.yul\":5614:5677   */\ntag_111:\n    /* \"#utility.yul\":5561:5683   */\n  pop\n  jump\t// out\n    /* \"#utility.yul\":5689:5832   */\ntag_34:\n    /* \"#utility.yul\":5746:5751   */\n  0x00\n    /* \"#utility.yul\":5777:5783   */\n  dup2\n    /* \"#utility.yul\":5771:5784   */\n  mload\n    /* \"#utility.yul\":5762:5784   */\n  swap1\n  pop\n    /* \"#utility.yul\":5793:5826   */\n  tag_113\n    /* \"#utility.yul\":5820:5825   */\n  dup2\n    /* \"#utility.yul\":5793:5826   */\n  tag_33\n  jump\t// in\ntag_113:\n    /* \"#utility.yul\":5689:5832   */\n  swap3\n  swap2\n  pop\n  pop\n  jump\t// out\n    /* \"#utility.yul\":5838:5955   */\ntag_35:\n    /* \"#utility.yul\":5947:5948   */\n  0x00\n    /* \"#utility.yul\":5944:5945   */\n  dup1\n    /* \"#utility.yul\":5937:5949   */\n  revert\n    /* \"#utility.yul\":5961:6078   */\ntag_36:\n    /* \"#utility.yul\":6070:6071   */\n  0x00\n    /* \"#utility.yul\":6067:6068   */\n  dup1\n    /* \"#utility.yul\":6060:6072   */\n  revert\n    /* \"#utility.yul\":6084:6186   */\ntag_37:\n    /* \"#utility.yul\":6125:6131   */\n  0x00\n    /* \"#utility.yul\":6176:6178   */\n  0x1f\n    /* \"#utility.yul\":6172:6179   */\n  not\n    /* \"#utility.yul\":6167:6169   */\n  0x1f\n    /* \"#utility.yul\":6160:6165   */\n  dup4\n    /* \"#utility.yul\":6156:6170   */\n  add\n    /* \"#utility.yul\":6152:6180   */\n  and\n    /* \"#utility.yul\":6142:6180   */\n  swap1\n  pop\n    /* \"#utility.yul\":6084:6186   */\n  swap2\n  swap1\n  pop\n  jump\t// out\n    /* \"#utility.yul\":6192:6473   */\ntag_38:\n    /* \"#utility.yul\":6275:6302   */\n  tag_118\n    /* \"#utility.yul\":6297:6301   */\n  dup3\n    /* \"#utility.yul\":6275:6302   */\n  tag_37\n  jump\t// in\ntag_118:\n    /* \"#utility.yul\":6267:6273   */\n  dup2\n    /* \"#utility.yul\":6263:6303   */\n  add\n    /* \"#utility.yul\":6405:6411   */\n  dup2\n    /* \"#utility.yul\":6393:6403   */\n  dup2\n    /* \"#utility.yul\":6390:6412   */\n  lt\n    /* \"#utility.yul\":6369:6387   */\n  0xffffffffffffffff\n    /* \"#utility.yul\":6357:6367   */\n  dup3\n    /* \"#utility.yul\":6354:6388   */\n  gt\n    /* \"#utility.yul\":6351:6413   */\n  or\n    /* \"#utility.yul\":6348:6436   */\n  iszero\n  tag_119\n  jumpi\n    /* \"#utility.yul\":6416:6434   */\n  tag_120\n  tag_11\n  jump\t// in\ntag_120:\n    /* \"#utility.yul\":6348:6436   */\ntag_119:\n    /* \"#utility.yul\":6456:6466   */\n  dup1\n    /* \"#utility.yul\":6452:6454   */\n  0x40\n    /* \"#utility.yul\":6445:6467   */\n  mstore\n    /* \"#utility.yul\":6235:6473   */\n  pop\n    /* \"#utility.yul\":6192:6473   */\n  pop\n  pop\n  jump\t// out\n    /* \"#utility.yul\":6479:6608   */\ntag_39:\n    /* \"#utility.yul\":6513:6519   */\n  0x00\n    /* \"#utility.yul\":6540:6560   */\n  tag_122\n  tag_30\n  jump\t// in\ntag_122:\n    /* \"#utility.yul\":6530:6560   */\n  swap1\n  pop\n    /* \"#utility.yul\":6569:6602   */\n  tag_123\n    /* \"#utility.yul\":6597:6601   */\n  dup3\n    /* \"#utility.yul\":6589:6595   */\n  dup3\n    /* \"#utility.yul\":6569:6602   */\n  tag_38\n  jump\t// in\ntag_123:\n    /* \"#utility.yul\":6479:6608   */\n  swap2\n  swap1\n  pop\n  jump\t// out\n    /* \"#utility.yul\":6614:6922   */\ntag_40:\n    /* \"#utility.yul\":6676:6680   */\n  0x00\n    /* \"#utility.yul\":6766:6784   */\n  0xffffffffffffffff\n    /* \"#utility.yul\":6758:6764   */\n  dup3\n    /* \"#utility.yul\":6755:6785   */\n  gt\n    /* \"#utility.yul\":6752:6808   */\n  iszero\n  tag_125\n  jumpi\n    /* \"#utility.yul\":6788:6806   */\n  tag_126\n  tag_11\n  jump\t// in\ntag_126:\n    /* \"#utility.yul\":6752:6808   */\ntag_125:\n    /* \"#utility.yul\":6826:6855   */\n  tag_127\n    /* \"#utility.yul\":6848:6854   */\n  dup3\n    /* \"#utility.yul\":6826:6855   */\n  tag_37\n  jump\t// in\ntag_127:\n    /* \"#utility.yul\":6818:6855   */\n  swap1\n  pop\n    /* \"#utility.yul\":6910:6914   */\n  0x20\n    /* \"#utility.yul\":6904:6908   */\n  dup2\n    /* \"#utility.yul\":6900:6915   */\n  add\n    /* \"#utility.yul\":6892:6915   */\n  swap1\n  pop\n    /* \"#utility.yul\":6614:6922   */\n  swap2\n  swap1\n  pop\n  jump\t// out\n    /* \"#utility.yul\":6928:7174   */\ntag_41:\n    /* \"#utility.yul\":7009:7010   */\n  0x00\n    /* \"#utility.yul\":7019:7132   */\ntag_129:\n    /* \"#utility.yul\":7033:7039   */\n  dup4\n    /* \"#utility.yul\":7030:7031   */\n  dup2\n    /* \"#utility.yul\":7027:7040   */\n  lt\n    /* \"#utility.yul\":7019:7132   */\n  iszero\n  tag_131\n  jumpi\n    /* \"#utility.yul\":7118:7119   */\n  dup1\n    /* \"#utility.yul\":7113:7116   */\n  dup3\n    /* \"#utility.yul\":7109:7120   */\n  add\n    /* \"#utility.yul\":7103:7121   */\n  mload\n    /* \"#utility.yul\":7099:7100   */\n  dup2\n    /* \"#utility.yul\":7094:7097   */\n  dup5\n    /* \"#utility.yul\":7090:7101   */\n  add\n    /* \"#utility.yul\":7083:7122   */\n  mstore\n    /* \"#utility.yul\":7055:7057   */\n  0x20\n    /* \"#utility.yul\":7052:7053   */\n  dup2\n    /* \"#utility.yul\":7048:7058   */\n  add\n    /* \"#utility.yul\":7043:7058   */\n  swap1\n  pop\n    /* \"#utility.yul\":7019:7132   */\n  jump(tag_129)\ntag_131:\n    /* \"#utility.yul\":7166:7167   */\n  0x00\n    /* \"#utility.yul\":7157:7163   */\n  dup5\n    /* \"#utility.yul\":7152:7155   */\n  dup5\n    /* \"#utility.yul\":7148:7164   */\n  add\n    /* \"#utility.yul\":7141:7168   */\n  mstore\n    /* \"#utility.yul\":6990:7174   */\n  pop\n    /* \"#utility.yul\":6928:7174   */\n  pop\n  pop\n  pop\n  jump\t// out\n    /* \"#utility.yul\":7180:7614   */\ntag_42:\n    /* \"#utility.yul\":7269:7274   */\n  0x00\n    /* \"#utility.yul\":7294:7360   */\n  tag_133\n    /* \"#utility.yul\":7310:7359   */\n  tag_134\n    /* \"#utility.yul\":7352:7358   */\n  dup5\n    /* \"#utility.yul\":7310:7359   */\n  tag_40\n  jump\t// in\ntag_134:\n    /* \"#utility.yul\":7294:7360   */\n  tag_39\n  jump\t// in\ntag_133:\n    /* \"#utility.yul\":7285:7360   */\n  swap1\n  pop\n    /* \"#utility.yul\":7383:7389   */\n  dup3\n    /* \"#utility.yul\":7376:7381   */\n  dup2\n    /* \"#utility.yul\":7369:7390   */\n  mstore\n    /* \"#utility.yul\":7421:7425   */\n  0x20\n    /* \"#utility.yul\":7414:7419   */\n  dup2\n    /* \"#utility.yul\":7410:7426   */\n  add\n    /* \"#utility.yul\":7459:7462   */\n  dup5\n    /* \"#utility.yul\":7450:7456   */\n  dup5\n    /* \"#utility.yul\":7445:7448   */\n  dup5\n    /* \"#utility.yul\":7441:7457   */\n  add\n    /* \"#utility.yul\":7438:7463   */\n  gt\n    /* \"#utility.yul\":7435:7547   */\n  iszero\n  tag_135\n  jumpi\n    /* \"#utility.yul\":7466:7545   */\n  tag_136\n  tag_36\n  jump\t// in\ntag_136:\n    /* \"#utility.yul\":7435:7547   */\ntag_135:\n    /* \"#utility.yul\":7556:7608   */\n  tag_137\n    /* \"#utility.yul\":7601:7607   */\n  dup5\n    /* \"#utility.yul\":7596:7599   */\n  dup3\n    /* \"#utility.yul\":7591:7594   */\n  dup6\n    /* \"#utility.yul\":7556:7608   */\n  tag_41\n  jump\t// in\ntag_137:\n    /* \"#utility.yul\":7275:7614   */\n  pop\n    /* \"#utility.yul\":7180:7614   */\n  swap4\n  swap3\n  pop\n  pop\n  pop\n  jump\t// out\n    /* \"#utility.yul\":7634:7989   */\ntag_43:\n    /* \"#utility.yul\":7701:7706   */\n  0x00\n    /* \"#utility.yul\":7750:7753   */\n  dup3\n    /* \"#utility.yul\":7743:7747   */\n  0x1f\n    /* \"#utility.yul\":7735:7741   */\n  dup4\n    /* \"#utility.yul\":7731:7748   */\n  add\n    /* \"#utility.yul\":7727:7754   */\n  slt\n    /* \"#utility.yul\":7717:7839   */\n  tag_139\n  jumpi\n    /* \"#utility.yul\":7758:7837   */\n  tag_140\n  tag_35\n  jump\t// in\ntag_140:\n    /* \"#utility.yul\":7717:7839   */\ntag_139:\n    /* \"#utility.yul\":7868:7874   */\n  dup2\n    /* \"#utility.yul\":7862:7875   */\n  mload\n    /* \"#utility.yul\":7893:7983   */\n  tag_141\n    /* \"#utility.yul\":7979:7982   */\n  dup5\n    /* \"#utility.yul\":7971:7977   */\n  dup3\n    /* \"#utility.yul\":7964:7968   */\n  0x20\n    /* \"#utility.yul\":7956:7962   */\n  dup7\n    /* \"#utility.yul\":7952:7969   */\n  add\n    /* \"#utility.yul\":7893:7983   */\n  tag_42\n  jump\t// in\ntag_141:\n    /* \"#utility.yul\":7884:7983   */\n  swap2\n  pop\n    /* \"#utility.yul\":7707:7989   */\n  pop\n    /* \"#utility.yul\":7634:7989   */\n  swap3\n  swap2\n  pop\n  pop\n  jump\t// out\n    /* \"#utility.yul\":7995:8675   */\ntag_5:\n    /* \"#utility.yul\":8084:8090   */\n  0x00\n    /* \"#utility.yul\":8092:8098   */\n  dup1\n    /* \"#utility.yul\":8141:8143   */\n  0x40\n    /* \"#utility.yul\":8129:8138   */\n  dup4\n    /* \"#utility.yul\":8120:8127   */\n  dup6\n    /* \"#utility.yul\":8116:8139   */\n  sub\n    /* \"#utility.yul\":8112:8144   */\n  slt\n    /* \"#utility.yul\":8109:8228   */\n  iszero\n  tag_143\n  jumpi\n    /* \"#utility.yul\":8147:8226   */\n  tag_144\n  tag_31\n  jump\t// in\ntag_144:\n    /* \"#utility.yul\":8109:8228   */\ntag_143:\n    /* \"#utility.yul\":8267:8268   */\n  0x00\n    /* \"#utility.yul\":8292:8356   */\n  tag_145\n    /* \"#utility.yul\":8348:8355   */\n  dup6\n    /* \"#utility.yul\":8339:8345   */\n  dup3\n    /* \"#utility.yul\":8328:8337   */\n  dup7\n    /* \"#utility.yul\":8324:8346   */\n  add\n    /* \"#utility.yul\":8292:8356   */\n  tag_34\n  jump\t// in\ntag_145:\n    /* \"#utility.yul\":8282:8356   */\n  swap3\n  pop\n    /* \"#utility.yul\":8238:8366   */\n  pop\n    /* \"#utility.yul\":8426:8428   */\n  0x20\n    /* \"#utility.yul\":8415:8424   */\n  dup4\n    /* \"#utility.yul\":8411:8429   */\n  add\n    /* \"#utility.yul\":8405:8430   */\n  mload\n    /* \"#utility.yul\":8457:8475   */\n  0xffffffffffffffff\n    /* \"#utility.yul\":8449:8455   */\n  dup2\n    /* \"#utility.yul\":8446:8476   */\n  gt\n    /* \"#utility.yul\":8443:8560   */\n  iszero\n  tag_146\n  jumpi\n    /* \"#utility.yul\":8479:8558   */\n  tag_147\n  tag_32\n  jump\t// in\ntag_147:\n    /* \"#utility.yul\":8443:8560   */\ntag_146:\n    /* \"#utility.yul\":8584:8658   */\n  tag_148\n    /* \"#utility.yul\":8650:8657   */\n  dup6\n    /* \"#utility.yul\":8641:8647   */\n  dup3\n    /* \"#utility.yul\":8630:8639   */\n  dup7\n    /* \"#utility.yul\":8626:8648   */\n  add\n    /* \"#utility.yul\":8584:8658   */\n  tag_43\n  jump\t// in\ntag_148:\n    /* \"#utility.yul\":8574:8658   */\n  swap2\n  pop\n    /* \"#utility.yul\":8376:8668   */\n  pop\n    /* \"#utility.yul\":7995:8675   */\n  swap3\n  pop\n  swap3\n  swap1\n  pop\n  jump\t// out\n    /* \"Counter.sol\":63:569  contract Counter {... */\ntag_9:\n  dataSize(sub_0)\n  dup1\n  dataOffset(sub_0)\n  0x00\n  codecopy\n  0x00\n  return\nstop\n\nsub_0: assembly {\n        /* \"Counter.sol\":63:569  contract Counter {... */\n      mstore(0x40, 0x80)\n      callvalue\n      dup1\n      iszero\n      tag_1\n      jumpi\n      0x00\n      dup1\n      revert\n    tag_1:\n      pop\n      jumpi(tag_2, lt(calldatasize, 0x04))\n      shr(0xe0, calldataload(0x00))\n      dup1\n      0x06661abd\n      eq\n      tag_3\n      jumpi\n      dup1\n      0x06fdde03\n      eq\n      tag_4\n      jumpi\n      dup1\n      0x2baeceb7\n      eq\n      tag_5\n      jumpi\n      dup1\n      0x58968e88\n      eq\n      tag_6\n      jumpi\n      dup1\n      0xc47f0027\n      eq\n      tag_7\n      jumpi\n    tag_2:\n      0x00\n      dup1\n      revert\n        /* \"Counter.sol\":86:107  uint public count = 0 */\n    tag_3:\n      tag_8\n      tag_9\n      jump\t// in\n    tag_8:\n      mload(0x40)\n      tag_10\n      swap2\n      swap1\n      tag_11\n      jump\t// in\n    tag_10:\n      mload(0x40)\n      dup1\n      swap2\n      sub\n      swap1\n      return\n        /* \"Counter.sol\":113:136  string public name = \"\" */\n    tag_4:\n      tag_12\n      tag_13\n      jump\t// in\n    tag_12:\n      mload(0x40)\n      tag_14\n      swap2\n      swap1\n      tag_15\n      jump\t// in\n    tag_14:\n      mload(0x40)\n      dup1\n      swap2\n      sub\n      swap1\n      return\n        /* \"Counter.sol\":310:430  function decrement () public {... */\n    tag_5:\n      tag_16\n      tag_17\n      jump\t// in\n    tag_16:\n      stop\n        /* \"Counter.sol\":248:304  function increament () public {... */\n    tag_6:\n      tag_18\n      tag_19\n      jump\t// in\n    tag_18:\n      stop\n        /* \"Counter.sol\":436:567  function setName (string memory _name) public returns (string memory newName) {... */\n    tag_7:\n      tag_20\n      0x04\n      dup1\n      calldatasize\n      sub\n      dup2\n      add\n      swap1\n      tag_21\n      swap2\n      swap1\n      tag_22\n      jump\t// in\n    tag_21:\n      tag_23\n      jump\t// in\n    tag_20:\n      mload(0x40)\n      tag_24\n      swap2\n      swap1\n      tag_15\n      jump\t// in\n    tag_24:\n      mload(0x40)\n      dup1\n      swap2\n      sub\n      swap1\n      return\n        /* \"Counter.sol\":86:107  uint public count = 0 */\n    tag_9:\n      sload(0x00)\n      dup2\n      jump\t// out\n        /* \"Counter.sol\":113:136  string public name = \"\" */\n    tag_13:\n      0x01\n      dup1\n      sload\n      tag_25\n      swap1\n      tag_26\n      jump\t// in\n    tag_25:\n      dup1\n      0x1f\n      add\n      0x20\n      dup1\n      swap2\n      div\n      mul\n      0x20\n      add\n      mload(0x40)\n      swap1\n      dup2\n      add\n      0x40\n      mstore\n      dup1\n      swap3\n      swap2\n      swap1\n      dup2\n      dup2\n      mstore\n      0x20\n      add\n      dup3\n      dup1\n      sload\n      tag_27\n      swap1\n      tag_26\n      jump\t// in\n    tag_27:\n      dup1\n      iszero\n      tag_28\n      jumpi\n      dup1\n      0x1f\n      lt\n      tag_29\n      jumpi\n      0x0100\n      dup1\n      dup4\n      sload\n      div\n      mul\n      dup4\n      mstore\n      swap2\n      0x20\n      add\n      swap2\n      jump(tag_28)\n    tag_29:\n      dup3\n      add\n      swap2\n      swap1\n      0x00\n      mstore\n      keccak256(0x00, 0x20)\n      swap1\n    tag_30:\n      dup2\n      sload\n      dup2\n      mstore\n      swap1\n      0x01\n      add\n      swap1\n      0x20\n      add\n      dup1\n      dup4\n      gt\n      tag_30\n      jumpi\n      dup3\n      swap1\n      sub\n      0x1f\n      and\n      dup3\n      add\n      swap2\n    tag_28:\n      pop\n      pop\n      pop\n      pop\n      pop\n      dup2\n      jump\t// out\n        /* \"Counter.sol\":310:430  function decrement () public {... */\n    tag_17:\n        /* \"Counter.sol\":365:366  0 */\n      0x00\n        /* \"Counter.sol\":357:362  count */\n      dup1\n      sload\n        /* \"Counter.sol\":357:366  count > 0 */\n      gt\n        /* \"Counter.sol\":349:404  require(count > 0, \"the couter must be greater than 0\") */\n      tag_32\n      jumpi\n      mload(0x40)\n      0x08c379a000000000000000000000000000000000000000000000000000000000\n      dup2\n      mstore\n      0x04\n      add\n      tag_33\n      swap1\n      tag_34\n      jump\t// in\n    tag_33:\n      mload(0x40)\n      dup1\n      swap2\n      sub\n      swap1\n      revert\n    tag_32:\n        /* \"Counter.sol\":414:419  count */\n      0x00\n      dup1\n        /* \"Counter.sol\":414:422  count -- */\n      dup2\n      sload\n      dup1\n      swap3\n      swap2\n      swap1\n      tag_35\n      swap1\n      tag_36\n      jump\t// in\n    tag_35:\n      swap2\n      swap1\n      pop\n      sstore\n      pop\n        /* \"Counter.sol\":310:430  function decrement () public {... */\n      jump\t// out\n        /* \"Counter.sol\":248:304  function increament () public {... */\n    tag_19:\n        /* \"Counter.sol\":288:293  count */\n      0x00\n      dup1\n        /* \"Counter.sol\":288:296  count ++ */\n      dup2\n      sload\n      dup1\n      swap3\n      swap2\n      swap1\n      tag_38\n      swap1\n      tag_39\n      jump\t// in\n    tag_38:\n      swap2\n      swap1\n      pop\n      sstore\n      pop\n        /* \"Counter.sol\":248:304  function increament () public {... */\n      jump\t// out\n        /* \"Counter.sol\":436:567  function setName (string memory _name) public returns (string memory newName) {... */\n    tag_23:\n        /* \"Counter.sol\":491:512  string memory newName */\n      0x60\n        /* \"Counter.sol\":531:536  _name */\n      dup2\n        /* \"Counter.sol\":524:528  name */\n      0x01\n        /* \"Counter.sol\":524:536  name = _name */\n      swap1\n      dup2\n      tag_41\n      swap2\n      swap1\n      tag_42\n      jump\t// in\n    tag_41:\n      pop\n        /* \"Counter.sol\":555:559  name */\n      0x01\n        /* \"Counter.sol\":547:559  return  name */\n      dup1\n      sload\n      tag_43\n      swap1\n      tag_26\n      jump\t// in\n    tag_43:\n      dup1\n      0x1f\n      add\n      0x20\n      dup1\n      swap2\n      div\n      mul\n      0x20\n      add\n      mload(0x40)\n      swap1\n      dup2\n      add\n      0x40\n      mstore\n      dup1\n      swap3\n      swap2\n      swap1\n      dup2\n      dup2\n      mstore\n      0x20\n      add\n      dup3\n      dup1\n      sload\n      tag_44\n      swap1\n      tag_26\n      jump\t// in\n    tag_44:\n      dup1\n      iszero\n      tag_45\n      jumpi\n      dup1\n      0x1f\n      lt\n      tag_46\n      jumpi\n      0x0100\n      dup1\n      dup4\n      sload\n      div\n      mul\n      dup4\n      mstore\n      swap2\n      0x20\n      add\n      swap2\n      jump(tag_45)\n    tag_46:\n      dup3\n      add\n      swap2\n      swap1\n      0x00\n      mstore\n      keccak256(0x00, 0x20)\n      swap1\n    tag_47:\n      dup2\n      sload\n      dup2\n      mstore\n      swap1\n      0x01\n      add\n      swap1\n      0x20\n      add\n      dup1\n      dup4\n      gt\n      tag_47\n      jumpi\n      dup3\n      swap1\n      sub\n      0x1f\n      and\n      dup3\n      add\n      swap2\n    tag_45:\n      pop\n      pop\n      pop\n      pop\n      pop\n      swap1\n      pop\n        /* \"Counter.sol\":436:567  function setName (string memory _name) public returns (string memory newName) {... */\n      swap2\n      swap1\n      pop\n      jump\t// out\n        /* \"#utility.yul\":7:84   */\n    tag_48:\n        /* \"#utility.yul\":44:51   */\n      0x00\n        /* \"#utility.yul\":73:78   */\n      dup2\n        /* \"#utility.yul\":62:78   */\n      swap1\n      pop\n        /* \"#utility.yul\":7:84   */\n      swap2\n      swap1\n      pop\n      jump\t// out\n        /* \"#utility.yul\":90:208   */\n    tag_49:\n        /* \"#utility.yul\":177:201   */\n      tag_89\n        /* \"#utility.yul\":195:200   */\n      dup2\n        /* \"#utility.yul\":177:201   */\n      tag_48\n      jump\t// in\n    tag_89:\n        /* \"#utility.yul\":172:175   */\n      dup3\n        /* \"#utility.yul\":165:202   */\n      mstore\n        /* \"#utility.yul\":90:208   */\n      pop\n      pop\n      jump\t// out\n        /* \"#utility.yul\":214:436   */\n    tag_11:\n        /* \"#utility.yul\":307:311   */\n      0x00\n        /* \"#utility.yul\":345:347   */\n      0x20\n        /* \"#utility.yul\":334:343   */\n      dup3\n        /* \"#utility.yul\":330:348   */\n      add\n        /* \"#utility.yul\":322:348   */\n      swap1\n      pop\n        /* \"#utility.yul\":358:429   */\n      tag_91\n        /* \"#utility.yul\":426:427   */\n      0x00\n        /* \"#utility.yul\":415:424   */\n      dup4\n        /* \"#utility.yul\":411:428   */\n      add\n        /* \"#utility.yul\":402:408   */\n      dup5\n        /* \"#utility.yul\":358:429   */\n      tag_49\n      jump\t// in\n    tag_91:\n        /* \"#utility.yul\":214:436   */\n      swap3\n      swap2\n      pop\n      pop\n      jump\t// out\n        /* \"#utility.yul\":442:541   */\n    tag_50:\n        /* \"#utility.yul\":494:500   */\n      0x00\n        /* \"#utility.yul\":528:533   */\n      dup2\n        /* \"#utility.yul\":522:534   */\n      mload\n        /* \"#utility.yul\":512:534   */\n      swap1\n      pop\n        /* \"#utility.yul\":442:541   */\n      swap2\n      swap1\n      pop\n      jump\t// out\n        /* \"#utility.yul\":547:716   */\n    tag_51:\n        /* \"#utility.yul\":631:642   */\n      0x00\n        /* \"#utility.yul\":665:671   */\n      dup3\n        /* \"#utility.yul\":660:663   */\n      dup3\n        /* \"#utility.yul\":653:672   */\n      mstore\n        /* \"#utility.yul\":705:709   */\n      0x20\n        /* \"#utility.yul\":700:703   */\n      dup3\n        /* \"#utility.yul\":696:710   */\n      add\n        /* \"#utility.yul\":681:710   */\n      swap1\n      pop\n        /* \"#utility.yul\":547:716   */\n      swap3\n      swap2\n      pop\n      pop\n      jump\t// out\n        /* \"#utility.yul\":722:968   */\n    tag_52:\n        /* \"#utility.yul\":803:804   */\n      0x00\n        /* \"#utility.yul\":813:926   */\n    tag_95:\n        /* \"#utility.yul\":827:833   */\n      dup4\n        /* \"#utility.yul\":824:825   */\n      dup2\n        /* \"#utility.yul\":821:834   */\n      lt\n        /* \"#utility.yul\":813:926   */\n      iszero\n      tag_97\n      jumpi\n        /* \"#utility.yul\":912:913   */\n      dup1\n        /* \"#utility.yul\":907:910   */\n      dup3\n        /* \"#utility.yul\":903:914   */\n      add\n        /* \"#utility.yul\":897:915   */\n      mload\n        /* \"#utility.yul\":893:894   */\n      dup2\n        /* \"#utility.yul\":888:891   */\n      dup5\n        /* \"#utility.yul\":884:895   */\n      add\n        /* \"#utility.yul\":877:916   */\n      mstore\n        /* \"#utility.yul\":849:851   */\n      0x20\n        /* \"#utility.yul\":846:847   */\n      dup2\n        /* \"#utility.yul\":842:852   */\n      add\n        /* \"#utility.yul\":837:852   */\n      swap1\n      pop\n        /* \"#utility.yul\":813:926   */\n      jump(tag_95)\n    tag_97:\n        /* \"#utility.yul\":960:961   */\n      0x00\n        /* \"#utility.yul\":951:957   */\n      dup5\n        /* \"#utility.yul\":946:949   */\n      dup5\n        /* \"#utility.yul\":942:958   */\n      add\n        /* \"#utility.yul\":935:962   */\n      mstore\n        /* \"#utility.yul\":784:968   */\n      pop\n        /* \"#utility.yul\":722:968   */\n      pop\n      pop\n      pop\n      jump\t// out\n        /* \"#utility.yul\":974:1076   */\n    tag_53:\n        /* \"#utility.yul\":1015:1021   */\n      0x00\n        /* \"#utility.yul\":1066:1068   */\n      0x1f\n        /* \"#utility.yul\":1062:1069   */\n      not\n        /* \"#utility.yul\":1057:1059   */\n      0x1f\n        /* \"#utility.yul\":1050:1055   */\n      dup4\n        /* \"#utility.yul\":1046:1060   */\n      add\n        /* \"#utility.yul\":1042:1070   */\n      and\n        /* \"#utility.yul\":1032:1070   */\n      swap1\n      pop\n        /* \"#utility.yul\":974:1076   */\n      swap2\n      swap1\n      pop\n      jump\t// out\n        /* \"#utility.yul\":1082:1459   */\n    tag_54:\n        /* \"#utility.yul\":1170:1173   */\n      0x00\n        /* \"#utility.yul\":1198:1237   */\n      tag_100\n        /* \"#utility.yul\":1231:1236   */\n      dup3\n        /* \"#utility.yul\":1198:1237   */\n      tag_50\n      jump\t// in\n    tag_100:\n        /* \"#utility.yul\":1253:1324   */\n      tag_101\n        /* \"#utility.yul\":1317:1323   */\n      dup2\n        /* \"#utility.yul\":1312:1315   */\n      dup6\n        /* \"#utility.yul\":1253:1324   */\n      tag_51\n      jump\t// in\n    tag_101:\n        /* \"#utility.yul\":1246:1324   */\n      swap4\n      pop\n        /* \"#utility.yul\":1333:1398   */\n      tag_102\n        /* \"#utility.yul\":1391:1397   */\n      dup2\n        /* \"#utility.yul\":1386:1389   */\n      dup6\n        /* \"#utility.yul\":1379:1383   */\n      0x20\n        /* \"#utility.yul\":1372:1377   */\n      dup7\n        /* \"#utility.yul\":1368:1384   */\n      add\n        /* \"#utility.yul\":1333:1398   */\n      tag_52\n      jump\t// in\n    tag_102:\n        /* \"#utility.yul\":1423:1452   */\n      tag_103\n        /* \"#utility.yul\":1445:1451   */\n      dup2\n        /* \"#utility.yul\":1423:1452   */\n      tag_53\n      jump\t// in\n    tag_103:\n        /* \"#utility.yul\":1418:1421   */\n      dup5\n        /* \"#utility.yul\":1414:1453   */\n      add\n        /* \"#utility.yul\":1407:1453   */\n      swap2\n      pop\n        /* \"#utility.yul\":1174:1459   */\n      pop\n        /* \"#utility.yul\":1082:1459   */\n      swap3\n      swap2\n      pop\n      pop\n      jump\t// out\n        /* \"#utility.yul\":1465:1778   */\n    tag_15:\n        /* \"#utility.yul\":1578:1582   */\n      0x00\n        /* \"#utility.yul\":1616:1618   */\n      0x20\n        /* \"#utility.yul\":1605:1614   */\n      dup3\n        /* \"#utility.yul\":1601:1619   */\n      add\n        /* \"#utility.yul\":1593:1619   */\n      swap1\n      pop\n        /* \"#utility.yul\":1665:1674   */\n      dup2\n        /* \"#utility.yul\":1659:1663   */\n      dup2\n        /* \"#utility.yul\":1655:1675   */\n      sub\n        /* \"#utility.yul\":1651:1652   */\n      0x00\n        /* \"#utility.yul\":1640:1649   */\n      dup4\n        /* \"#utility.yul\":1636:1653   */\n      add\n        /* \"#utility.yul\":1629:1676   */\n      mstore\n        /* \"#utility.yul\":1693:1771   */\n      tag_105\n        /* \"#utility.yul\":1766:1770   */\n      dup2\n        /* \"#utility.yul\":1757:1763   */\n      dup5\n        /* \"#utility.yul\":1693:1771   */\n      tag_54\n      jump\t// in\n    tag_105:\n        /* \"#utility.yul\":1685:1771   */\n      swap1\n      pop\n        /* \"#utility.yul\":1465:1778   */\n      swap3\n      swap2\n      pop\n      pop\n      jump\t// out\n        /* \"#utility.yul\":1784:1859   */\n    tag_55:\n        /* \"#utility.yul\":1817:1823   */\n      0x00\n        /* \"#utility.yul\":1850:1852   */\n      0x40\n        /* \"#utility.yul\":1844:1853   */\n      mload\n        /* \"#utility.yul\":1834:1853   */\n      swap1\n      pop\n        /* \"#utility.yul\":1784:1859   */\n      swap1\n      jump\t// out\n        /* \"#utility.yul\":1865:1982   */\n    tag_56:\n        /* \"#utility.yul\":1974:1975   */\n      0x00\n        /* \"#utility.yul\":1971:1972   */\n      dup1\n        /* \"#utility.yul\":1964:1976   */\n      revert\n        /* \"#utility.yul\":1988:2105   */\n    tag_57:\n        /* \"#utility.yul\":2097:2098   */\n      0x00\n        /* \"#utility.yul\":2094:2095   */\n      dup1\n        /* \"#utility.yul\":2087:2099   */\n      revert\n        /* \"#utility.yul\":2111:2228   */\n    tag_58:\n        /* \"#utility.yul\":2220:2221   */\n      0x00\n        /* \"#utility.yul\":2217:2218   */\n      dup1\n        /* \"#utility.yul\":2210:2222   */\n      revert\n        /* \"#utility.yul\":2234:2351   */\n    tag_59:\n        /* \"#utility.yul\":2343:2344   */\n      0x00\n        /* \"#utility.yul\":2340:2341   */\n      dup1\n        /* \"#utility.yul\":2333:2345   */\n      revert\n        /* \"#utility.yul\":2357:2537   */\n    tag_60:\n        /* \"#utility.yul\":2405:2482   */\n      0x4e487b7100000000000000000000000000000000000000000000000000000000\n        /* \"#utility.yul\":2402:2403   */\n      0x00\n        /* \"#utility.yul\":2395:2483   */\n      mstore\n        /* \"#utility.yul\":2502:2506   */\n      0x41\n        /* \"#utility.yul\":2499:2500   */\n      0x04\n        /* \"#utility.yul\":2492:2507   */\n      mstore\n        /* \"#utility.yul\":2526:2530   */\n      0x24\n        /* \"#utility.yul\":2523:2524   */\n      0x00\n        /* \"#utility.yul\":2516:2531   */\n      revert\n        /* \"#utility.yul\":2543:2824   */\n    tag_61:\n        /* \"#utility.yul\":2626:2653   */\n      tag_113\n        /* \"#utility.yul\":2648:2652   */\n      dup3\n        /* \"#utility.yul\":2626:2653   */\n      tag_53\n      jump\t// in\n    tag_113:\n        /* \"#utility.yul\":2618:2624   */\n      dup2\n        /* \"#utility.yul\":2614:2654   */\n      add\n        /* \"#utility.yul\":2756:2762   */\n      dup2\n        /* \"#utility.yul\":2744:2754   */\n      dup2\n        /* \"#utility.yul\":2741:2763   */\n      lt\n        /* \"#utility.yul\":2720:2738   */\n      0xffffffffffffffff\n        /* \"#utility.yul\":2708:2718   */\n      dup3\n        /* \"#utility.yul\":2705:2739   */\n      gt\n        /* \"#utility.yul\":2702:2764   */\n      or\n        /* \"#utility.yul\":2699:2787   */\n      iszero\n      tag_114\n      jumpi\n        /* \"#utility.yul\":2767:2785   */\n      tag_115\n      tag_60\n      jump\t// in\n    tag_115:\n        /* \"#utility.yul\":2699:2787   */\n    tag_114:\n        /* \"#utility.yul\":2807:2817   */\n      dup1\n        /* \"#utility.yul\":2803:2805   */\n      0x40\n        /* \"#utility.yul\":2796:2818   */\n      mstore\n        /* \"#utility.yul\":2586:2824   */\n      pop\n        /* \"#utility.yul\":2543:2824   */\n      pop\n      pop\n      jump\t// out\n        /* \"#utility.yul\":2830:2959   */\n    tag_62:\n        /* \"#utility.yul\":2864:2870   */\n      0x00\n        /* \"#utility.yul\":2891:2911   */\n      tag_117\n      tag_55\n      jump\t// in\n    tag_117:\n        /* \"#utility.yul\":2881:2911   */\n      swap1\n      pop\n        /* \"#utility.yul\":2920:2953   */\n      tag_118\n        /* \"#utility.yul\":2948:2952   */\n      dup3\n        /* \"#utility.yul\":2940:2946   */\n      dup3\n        /* \"#utility.yul\":2920:2953   */\n      tag_61\n      jump\t// in\n    tag_118:\n        /* \"#utility.yul\":2830:2959   */\n      swap2\n      swap1\n      pop\n      jump\t// out\n        /* \"#utility.yul\":2965:3273   */\n    tag_63:\n        /* \"#utility.yul\":3027:3031   */\n      0x00\n        /* \"#utility.yul\":3117:3135   */\n      0xffffffffffffffff\n        /* \"#utility.yul\":3109:3115   */\n      dup3\n        /* \"#utility.yul\":3106:3136   */\n      gt\n        /* \"#utility.yul\":3103:3159   */\n      iszero\n      tag_120\n      jumpi\n        /* \"#utility.yul\":3139:3157   */\n      tag_121\n      tag_60\n      jump\t// in\n    tag_121:\n        /* \"#utility.yul\":3103:3159   */\n    tag_120:\n        /* \"#utility.yul\":3177:3206   */\n      tag_122\n        /* \"#utility.yul\":3199:3205   */\n      dup3\n        /* \"#utility.yul\":3177:3206   */\n      tag_53\n      jump\t// in\n    tag_122:\n        /* \"#utility.yul\":3169:3206   */\n      swap1\n      pop\n        /* \"#utility.yul\":3261:3265   */\n      0x20\n        /* \"#utility.yul\":3255:3259   */\n      dup2\n        /* \"#utility.yul\":3251:3266   */\n      add\n        /* \"#utility.yul\":3243:3266   */\n      swap1\n      pop\n        /* \"#utility.yul\":2965:3273   */\n      swap2\n      swap1\n      pop\n      jump\t// out\n        /* \"#utility.yul\":3279:3425   */\n    tag_64:\n        /* \"#utility.yul\":3376:3382   */\n      dup3\n        /* \"#utility.yul\":3371:3374   */\n      dup2\n        /* \"#utility.yul\":3366:3369   */\n      dup4\n        /* \"#utility.yul\":3353:3383   */\n      calldatacopy\n        /* \"#utility.yul\":3417:3418   */\n      0x00\n        /* \"#utility.yul\":3408:3414   */\n      dup4\n        /* \"#utility.yul\":3403:3406   */\n      dup4\n        /* \"#utility.yul\":3399:3415   */\n      add\n        /* \"#utility.yul\":3392:3419   */\n      mstore\n        /* \"#utility.yul\":3279:3425   */\n      pop\n      pop\n      pop\n      jump\t// out\n        /* \"#utility.yul\":3431:3856   */\n    tag_65:\n        /* \"#utility.yul\":3509:3514   */\n      0x00\n        /* \"#utility.yul\":3534:3600   */\n      tag_125\n        /* \"#utility.yul\":3550:3599   */\n      tag_126\n        /* \"#utility.yul\":3592:3598   */\n      dup5\n        /* \"#utility.yul\":3550:3599   */\n      tag_63\n      jump\t// in\n    tag_126:\n        /* \"#utility.yul\":3534:3600   */\n      tag_62\n      jump\t// in\n    tag_125:\n        /* \"#utility.yul\":3525:3600   */\n      swap1\n      pop\n        /* \"#utility.yul\":3623:3629   */\n      dup3\n        /* \"#utility.yul\":3616:3621   */\n      dup2\n        /* \"#utility.yul\":3609:3630   */\n      mstore\n        /* \"#utility.yul\":3661:3665   */\n      0x20\n        /* \"#utility.yul\":3654:3659   */\n      dup2\n        /* \"#utility.yul\":3650:3666   */\n      add\n        /* \"#utility.yul\":3699:3702   */\n      dup5\n        /* \"#utility.yul\":3690:3696   */\n      dup5\n        /* \"#utility.yul\":3685:3688   */\n      dup5\n        /* \"#utility.yul\":3681:3697   */\n      add\n        /* \"#utility.yul\":3678:3703   */\n      gt\n        /* \"#utility.yul\":3675:3787   */\n      iszero\n      tag_127\n      jumpi\n        /* \"#utility.yul\":3706:3785   */\n      tag_128\n      tag_59\n      jump\t// in\n    tag_128:\n        /* \"#utility.yul\":3675:3787   */\n    tag_127:\n        /* \"#utility.yul\":3796:3850   */\n      tag_129\n        /* \"#utility.yul\":3843:3849   */\n      dup5\n        /* \"#utility.yul\":3838:3841   */\n      dup3\n        /* \"#utility.yul\":3833:3836   */\n      dup6\n        /* \"#utility.yul\":3796:3850   */\n      tag_64\n      jump\t// in\n    tag_129:\n        /* \"#utility.yul\":3515:3856   */\n      pop\n        /* \"#utility.yul\":3431:3856   */\n      swap4\n      swap3\n      pop\n      pop\n      pop\n      jump\t// out\n        /* \"#utility.yul\":3876:4216   */\n    tag_66:\n        /* \"#utility.yul\":3932:3937   */\n      0x00\n        /* \"#utility.yul\":3981:3984   */\n      dup3\n        /* \"#utility.yul\":3974:3978   */\n      0x1f\n        /* \"#utility.yul\":3966:3972   */\n      dup4\n        /* \"#utility.yul\":3962:3979   */\n      add\n        /* \"#utility.yul\":3958:3985   */\n      slt\n        /* \"#utility.yul\":3948:4070   */\n      tag_131\n      jumpi\n        /* \"#utility.yul\":3989:4068   */\n      tag_132\n      tag_58\n      jump\t// in\n    tag_132:\n        /* \"#utility.yul\":3948:4070   */\n    tag_131:\n        /* \"#utility.yul\":4106:4112   */\n      dup2\n        /* \"#utility.yul\":4093:4113   */\n      calldataload\n        /* \"#utility.yul\":4131:4210   */\n      tag_133\n        /* \"#utility.yul\":4206:4209   */\n      dup5\n        /* \"#utility.yul\":4198:4204   */\n      dup3\n        /* \"#utility.yul\":4191:4195   */\n      0x20\n        /* \"#utility.yul\":4183:4189   */\n      dup7\n        /* \"#utility.yul\":4179:4196   */\n      add\n        /* \"#utility.yul\":4131:4210   */\n      tag_65\n      jump\t// in\n    tag_133:\n        /* \"#utility.yul\":4122:4210   */\n      swap2\n      pop\n        /* \"#utility.yul\":3938:4216   */\n      pop\n        /* \"#utility.yul\":3876:4216   */\n      swap3\n      swap2\n      pop\n      pop\n      jump\t// out\n        /* \"#utility.yul\":4222:4731   */\n    tag_22:\n        /* \"#utility.yul\":4291:4297   */\n      0x00\n        /* \"#utility.yul\":4340:4342   */\n      0x20\n        /* \"#utility.yul\":4328:4337   */\n      dup3\n        /* \"#utility.yul\":4319:4326   */\n      dup5\n        /* \"#utility.yul\":4315:4338   */\n      sub\n        /* \"#utility.yul\":4311:4343   */\n      slt\n        /* \"#utility.yul\":4308:4427   */\n      iszero\n      tag_135\n      jumpi\n        /* \"#utility.yul\":4346:4425   */\n      tag_136\n      tag_56\n      jump\t// in\n    tag_136:\n        /* \"#utility.yul\":4308:4427   */\n    tag_135:\n        /* \"#utility.yul\":4494:4495   */\n      0x00\n        /* \"#utility.yul\":4483:4492   */\n      dup3\n        /* \"#utility.yul\":4479:4496   */\n      add\n        /* \"#utility.yul\":4466:4497   */\n      calldataload\n        /* \"#utility.yul\":4524:4542   */\n      0xffffffffffffffff\n        /* \"#utility.yul\":4516:4522   */\n      dup2\n        /* \"#utility.yul\":4513:4543   */\n      gt\n        /* \"#utility.yul\":4510:4627   */\n      iszero\n      tag_137\n      jumpi\n        /* \"#utility.yul\":4546:4625   */\n      tag_138\n      tag_57\n      jump\t// in\n    tag_138:\n        /* \"#utility.yul\":4510:4627   */\n    tag_137:\n        /* \"#utility.yul\":4651:4714   */\n      tag_139\n        /* \"#utility.yul\":4706:4713   */\n      dup5\n        /* \"#utility.yul\":4697:4703   */\n      dup3\n        /* \"#utility.yul\":4686:4695   */\n      dup6\n        /* \"#utility.yul\":4682:4704   */\n      add\n        /* \"#utility.yul\":4651:4714   */\n      tag_66\n      jump\t// in\n    tag_139:\n        /* \"#utility.yul\":4641:4714   */\n      swap2\n      pop\n        /* \"#utility.yul\":4437:4724   */\n      pop\n        /* \"#utility.yul\":4222:4731   */\n      swap3\n      swap2\n      pop\n      pop\n      jump\t// out\n        /* \"#utility.yul\":4737:4917   */\n    tag_67:\n        /* \"#utility.yul\":4785:4862   */\n      0x4e487b7100000000000000000000000000000000000000000000000000000000\n        /* \"#utility.yul\":4782:4783   */\n      0x00\n        /* \"#utility.yul\":4775:4863   */\n      mstore\n        /* \"#utility.yul\":4882:4886   */\n      0x22\n        /* \"#utility.yul\":4879:4880   */\n      0x04\n        /* \"#utility.yul\":4872:4887   */\n      mstore\n        /* \"#utility.yul\":4906:4910   */\n      0x24\n        /* \"#utility.yul\":4903:4904   */\n      0x00\n        /* \"#utility.yul\":4896:4911   */\n      revert\n        /* \"#utility.yul\":4923:5243   */\n    tag_26:\n        /* \"#utility.yul\":4967:4973   */\n      0x00\n        /* \"#utility.yul\":5004:5005   */\n      0x02\n        /* \"#utility.yul\":4998:5002   */\n      dup3\n        /* \"#utility.yul\":4994:5006   */\n      div\n        /* \"#utility.yul\":4984:5006   */\n      swap1\n      pop\n        /* \"#utility.yul\":5051:5052   */\n      0x01\n        /* \"#utility.yul\":5045:5049   */\n      dup3\n        /* \"#utility.yul\":5041:5053   */\n      and\n        /* \"#utility.yul\":5072:5090   */\n      dup1\n        /* \"#utility.yul\":5062:5143   */\n      tag_142\n      jumpi\n        /* \"#utility.yul\":5128:5132   */\n      0x7f\n        /* \"#utility.yul\":5120:5126   */\n      dup3\n        /* \"#utility.yul\":5116:5133   */\n      and\n        /* \"#utility.yul\":5106:5133   */\n      swap2\n      pop\n        /* \"#utility.yul\":5062:5143   */\n    tag_142:\n        /* \"#utility.yul\":5190:5192   */\n      0x20\n        /* \"#utility.yul\":5182:5188   */\n      dup3\n        /* \"#utility.yul\":5179:5193   */\n      lt\n        /* \"#utility.yul\":5159:5177   */\n      dup2\n        /* \"#utility.yul\":5156:5194   */\n      sub\n        /* \"#utility.yul\":5153:5237   */\n      tag_143\n      jumpi\n        /* \"#utility.yul\":5209:5227   */\n      tag_144\n      tag_67\n      jump\t// in\n    tag_144:\n        /* \"#utility.yul\":5153:5237   */\n    tag_143:\n        /* \"#utility.yul\":4974:5243   */\n      pop\n        /* \"#utility.yul\":4923:5243   */\n      swap2\n      swap1\n      pop\n      jump\t// out\n        /* \"#utility.yul\":5249:5469   */\n    tag_68:\n        /* \"#utility.yul\":5389:5423   */\n      0x74686520636f75746572206d7573742062652067726561746572207468616e20\n        /* \"#utility.yul\":5385:5386   */\n      0x00\n        /* \"#utility.yul\":5377:5383   */\n      dup3\n        /* \"#utility.yul\":5373:5387   */\n      add\n        /* \"#utility.yul\":5366:5424   */\n      mstore\n        /* \"#utility.yul\":5458:5461   */\n      0x3000000000000000000000000000000000000000000000000000000000000000\n        /* \"#utility.yul\":5453:5455   */\n      0x20\n        /* \"#utility.yul\":5445:5451   */\n      dup3\n        /* \"#utility.yul\":5441:5456   */\n      add\n        /* \"#utility.yul\":5434:5462   */\n      mstore\n        /* \"#utility.yul\":5249:5469   */\n      pop\n      jump\t// out\n        /* \"#utility.yul\":5475:5841   */\n    tag_69:\n        /* \"#utility.yul\":5617:5620   */\n      0x00\n        /* \"#utility.yul\":5638:5705   */\n      tag_147\n        /* \"#utility.yul\":5702:5704   */\n      0x21\n        /* \"#utility.yul\":5697:5700   */\n      dup4\n        /* \"#utility.yul\":5638:5705   */\n      tag_51\n      jump\t// in\n    tag_147:\n        /* \"#utility.yul\":5631:5705   */\n      swap2\n      pop\n        /* \"#utility.yul\":5714:5807   */\n      tag_148\n        /* \"#utility.yul\":5803:5806   */\n      dup3\n        /* \"#utility.yul\":5714:5807   */\n      tag_68\n      jump\t// in\n    tag_148:\n        /* \"#utility.yul\":5832:5834   */\n      0x40\n        /* \"#utility.yul\":5827:5830   */\n      dup3\n        /* \"#utility.yul\":5823:5835   */\n      add\n        /* \"#utility.yul\":5816:5835   */\n      swap1\n      pop\n        /* \"#utility.yul\":5475:5841   */\n      swap2\n      swap1\n      pop\n      jump\t// out\n        /* \"#utility.yul\":5847:6266   */\n    tag_34:\n        /* \"#utility.yul\":6013:6017   */\n      0x00\n        /* \"#utility.yul\":6051:6053   */\n      0x20\n        /* \"#utility.yul\":6040:6049   */\n      dup3\n        /* \"#utility.yul\":6036:6054   */\n      add\n        /* \"#utility.yul\":6028:6054   */\n      swap1\n      pop\n        /* \"#utility.yul\":6100:6109   */\n      dup2\n        /* \"#utility.yul\":6094:6098   */\n      dup2\n        /* \"#utility.yul\":6090:6110   */\n      sub\n        /* \"#utility.yul\":6086:6087   */\n      0x00\n        /* \"#utility.yul\":6075:6084   */\n      dup4\n        /* \"#utility.yul\":6071:6088   */\n      add\n        /* \"#utility.yul\":6064:6111   */\n      mstore\n        /* \"#utility.yul\":6128:6259   */\n      tag_150\n        /* \"#utility.yul\":6254:6258   */\n      dup2\n        /* \"#utility.yul\":6128:6259   */\n      tag_69\n      jump\t// in\n    tag_150:\n        /* \"#utility.yul\":6120:6259   */\n      swap1\n      pop\n        /* \"#utility.yul\":5847:6266   */\n      swap2\n      swap1\n      pop\n      jump\t// out\n        /* \"#utility.yul\":6272:6452   */\n    tag_70:\n        /* \"#utility.yul\":6320:6397   */\n      0x4e487b7100000000000000000000000000000000000000000000000000000000\n        /* \"#utility.yul\":6317:6318   */\n      0x00\n        /* \"#utility.yul\":6310:6398   */\n      mstore\n        /* \"#utility.yul\":6417:6421   */\n      0x11\n        /* \"#utility.yul\":6414:6415   */\n      0x04\n        /* \"#utility.yul\":6407:6422   */\n      mstore\n        /* \"#utility.yul\":6441:6445   */\n      0x24\n        /* \"#utility.yul\":6438:6439   */\n      0x00\n        /* \"#utility.yul\":6431:6446   */\n      revert\n        /* \"#utility.yul\":6458:6629   */\n    tag_36:\n        /* \"#utility.yul\":6497:6500   */\n      0x00\n        /* \"#utility.yul\":6520:6544   */\n      tag_153\n        /* \"#utility.yul\":6538:6543   */\n      dup3\n        /* \"#utility.yul\":6520:6544   */\n      tag_48\n      jump\t// in\n    tag_153:\n        /* \"#utility.yul\":6511:6544   */\n      swap2\n      pop\n        /* \"#utility.yul\":6566:6570   */\n      0x00\n        /* \"#utility.yul\":6559:6564   */\n      dup3\n        /* \"#utility.yul\":6556:6571   */\n      sub\n        /* \"#utility.yul\":6553:6594   */\n      tag_154\n      jumpi\n        /* \"#utility.yul\":6574:6592   */\n      tag_155\n      tag_70\n      jump\t// in\n    tag_155:\n        /* \"#utility.yul\":6553:6594   */\n    tag_154:\n        /* \"#utility.yul\":6621:6622   */\n      0x01\n        /* \"#utility.yul\":6614:6619   */\n      dup3\n        /* \"#utility.yul\":6610:6623   */\n      sub\n        /* \"#utility.yul\":6603:6623   */\n      swap1\n      pop\n        /* \"#utility.yul\":6458:6629   */\n      swap2\n      swap1\n      pop\n      jump\t// out\n        /* \"#utility.yul\":6635:6868   */\n    tag_39:\n        /* \"#utility.yul\":6674:6677   */\n      0x00\n        /* \"#utility.yul\":6697:6721   */\n      tag_157\n        /* \"#utility.yul\":6715:6720   */\n      dup3\n        /* \"#utility.yul\":6697:6721   */\n      tag_48\n      jump\t// in\n    tag_157:\n        /* \"#utility.yul\":6688:6721   */\n      swap2\n      pop\n        /* \"#utility.yul\":6743:6809   */\n      0xffffffffffffffffffffffffffffffffffffffffffffffffffffffffffffffff\n        /* \"#utility.yul\":6736:6741   */\n      dup3\n        /* \"#utility.yul\":6733:6810   */\n      sub\n        /* \"#utility.yul\":6730:6833   */\n      tag_158\n      jumpi\n        /* \"#utility.yul\":6813:6831   */\n      tag_159\n      tag_70\n      jump\t// in\n    tag_159:\n        /* \"#utility.yul\":6730:6833   */\n    tag_158:\n        /* \"#utility.yul\":6860:6861   */\n      0x01\n        /* \"#utility.yul\":6853:6858   */\n      dup3\n        /* \"#utility.yul\":6849:6862   */\n      add\n        /* \"#utility.yul\":6842:6862   */\n      swap1\n      pop\n        /* \"#utility.yul\":6635:6868   */\n      swap2\n      swap1\n      pop\n      jump\t// out\n        /* \"#utility.yul\":6874:7015   */\n    tag_71:\n        /* \"#utility.yul\":6923:6927   */\n      0x00\n        /* \"#utility.yul\":6946:6949   */\n      dup2\n        /* \"#utility.yul\":6938:6949   */\n      swap1\n      pop\n        /* \"#utility.yul\":6969:6972   */\n      dup2\n        /* \"#utility.yul\":6966:6967   */\n      0x00\n        /* \"#utility.yul\":6959:6973   */\n      mstore\n        /* \"#utility.yul\":7003:7007   */\n      0x20\n        /* \"#utility.yul\":7000:7001   */\n      0x00\n        /* \"#utility.yul\":6990:7008   */\n      keccak256\n        /* \"#utility.yul\":6982:7008   */\n      swap1\n      pop\n        /* \"#utility.yul\":6874:7015   */\n      swap2\n      swap1\n      pop\n      jump\t// out\n        /* \"#utility.yul\":7021:7114   */\n    tag_72:\n        /* \"#utility.yul\":7058:7064   */\n      0x00\n        /* \"#utility.yul\":7105:7107   */\n      0x20\n        /* \"#utility.yul\":7100:7102   */\n      0x1f\n        /* \"#utility.yul\":7093:7098   */\n      dup4\n        /* \"#utility.yul\":7089:7103   */\n      add\n        /* \"#utility.yul\":7085:7108   */\n      div\n        /* \"#utility.yul\":7075:7108   */\n      swap1\n      pop\n        /* \"#utility.yul\":7021:7114   */\n      swap2\n      swap1\n      pop\n      jump\t// out\n        /* \"#utility.yul\":7120:7227   */\n    tag_73:\n        /* \"#utility.yul\":7164:7172   */\n      0x00\n        /* \"#utility.yul\":7214:7219   */\n      dup3\n        /* \"#utility.yul\":7208:7212   */\n      dup3\n        /* \"#utility.yul\":7204:7220   */\n      shl\n        /* \"#utility.yul\":7183:7220   */\n      swap1\n      pop\n        /* \"#utility.yul\":7120:7227   */\n      swap3\n      swap2\n      pop\n      pop\n      jump\t// out\n        /* \"#utility.yul\":7233:7626   */\n    tag_74:\n        /* \"#utility.yul\":7302:7308   */\n      0x00\n        /* \"#utility.yul\":7352:7353   */\n      0x08\n        /* \"#utility.yul\":7340:7350   */\n      dup4\n        /* \"#utility.yul\":7336:7354   */\n      mul\n        /* \"#utility.yul\":7375:7472   */\n      tag_164\n        /* \"#utility.yul\":7405:7471   */\n      0xffffffffffffffffffffffffffffffffffffffffffffffffffffffffffffffff\n        /* \"#utility.yul\":7394:7403   */\n      dup3\n        /* \"#utility.yul\":7375:7472   */\n      tag_73\n      jump\t// in\n    tag_164:\n        /* \"#utility.yul\":7493:7532   */\n      tag_165\n        /* \"#utility.yul\":7523:7531   */\n      dup7\n        /* \"#utility.yul\":7512:7521   */\n      dup4\n        /* \"#utility.yul\":7493:7532   */\n      tag_73\n      jump\t// in\n    tag_165:\n        /* \"#utility.yul\":7481:7532   */\n      swap6\n      pop\n        /* \"#utility.yul\":7565:7569   */\n      dup1\n        /* \"#utility.yul\":7561:7570   */\n      not\n        /* \"#utility.yul\":7554:7559   */\n      dup5\n        /* \"#utility.yul\":7550:7571   */\n      and\n        /* \"#utility.yul\":7541:7571   */\n      swap4\n      pop\n        /* \"#utility.yul\":7614:7618   */\n      dup1\n        /* \"#utility.yul\":7604:7612   */\n      dup7\n        /* \"#utility.yul\":7600:7619   */\n      and\n        /* \"#utility.yul\":7593:7598   */\n      dup5\n        /* \"#utility.yul\":7590:7620   */\n      or\n        /* \"#utility.yul\":7580:7620   */\n      swap3\n      pop\n        /* \"#utility.yul\":7309:7626   */\n      pop\n      pop\n        /* \"#utility.yul\":7233:7626   */\n      swap4\n      swap3\n      pop\n      pop\n      pop\n      jump\t// out\n        /* \"#utility.yul\":7632:7692   */\n    tag_75:\n        /* \"#utility.yul\":7660:7663   */\n      0x00\n        /* \"#utility.yul\":7681:7686   */\n      dup2\n        /* \"#utility.yul\":7674:7686   */\n      swap1\n      pop\n        /* \"#utility.yul\":7632:7692   */\n      swap2\n      swap1\n      pop\n      jump\t// out\n        /* \"#utility.yul\":7698:7840   */\n    tag_76:\n        /* \"#utility.yul\":7748:7757   */\n      0x00\n        /* \"#utility.yul\":7781:7834   */\n      tag_168\n        /* \"#utility.yul\":7799:7833   */\n      tag_169\n        /* \"#utility.yul\":7808:7832   */\n      tag_170\n        /* \"#utility.yul\":7826:7831   */\n      dup5\n        /* \"#utility.yul\":7808:7832   */\n      tag_48\n      jump\t// in\n    tag_170:\n        /* \"#utility.yul\":7799:7833   */\n      tag_75\n      jump\t// in\n    tag_169:\n        /* \"#utility.yul\":7781:7834   */\n      tag_48\n      jump\t// in\n    tag_168:\n        /* \"#utility.yul\":7768:7834   */\n      swap1\n      pop\n        /* \"#utility.yul\":7698:7840   */\n      swap2\n      swap1\n      pop\n      jump\t// out\n        /* \"#utility.yul\":7846:7921   */\n    tag_77:\n        /* \"#utility.yul\":7889:7892   */\n      0x00\n        /* \"#utility.yul\":7910:7915   */\n      dup2\n        /* \"#utility.yul\":7903:7915   */\n      swap1\n      pop\n        /* \"#utility.yul\":7846:7921   */\n      swap2\n      swap1\n      pop\n      jump\t// out\n        /* \"#utility.yul\":7927:8196   */\n    tag_78:\n        /* \"#utility.yul\":8037:8076   */\n      tag_173\n        /* \"#utility.yul\":8068:8075   */\n      dup4\n        /* \"#utility.yul\":8037:8076   */\n      tag_76\n      jump\t// in\n    tag_173:\n        /* \"#utility.yul\":8098:8189   */\n      tag_174\n        /* \"#utility.yul\":8147:8188   */\n      tag_175\n        /* \"#utility.yul\":8171:8187   */\n      dup3\n        /* \"#utility.yul\":8147:8188   */\n      tag_77\n      jump\t// in\n    tag_175:\n        /* \"#utility.yul\":8139:8145   */\n      dup5\n        /* \"#utility.yul\":8132:8136   */\n      dup5\n        /* \"#utility.yul\":8126:8137   */\n      sload\n        /* \"#utility.yul\":8098:8189   */\n      tag_74\n      jump\t// in\n    tag_174:\n        /* \"#utility.yul\":8092:8096   */\n      dup3\n        /* \"#utility.yul\":8085:8190   */\n      sstore\n        /* \"#utility.yul\":8003:8196   */\n      pop\n        /* \"#utility.yul\":7927:8196   */\n      pop\n      pop\n      pop\n      jump\t// out\n        /* \"#utility.yul\":8202:8275   */\n    tag_79:\n        /* \"#utility.yul\":8247:8250   */\n      0x00\n        /* \"#utility.yul\":8202:8275   */\n      swap1\n      jump\t// out\n        /* \"#utility.yul\":8281:8470   */\n    tag_80:\n        /* \"#utility.yul\":8358:8390   */\n      tag_178\n      tag_79\n      jump\t// in\n    tag_178:\n        /* \"#utility.yul\":8399:8464   */\n      tag_179\n        /* \"#utility.yul\":8457:8463   */\n      dup2\n        /* \"#utility.yul\":8449:8455   */\n      dup5\n        /* \"#utility.yul\":8443:8447   */\n      dup5\n        /* \"#utility.yul\":8399:8464   */\n      tag_78\n      jump\t// in\n    tag_179:\n        /* \"#utility.yul\":8334:8470   */\n      pop\n        /* \"#utility.yul\":8281:8470   */\n      pop\n      pop\n      jump\t// out\n        /* \"#utility.yul\":8476:8662   */\n    tag_81:\n        /* \"#utility.yul\":8536:8656   */\n    tag_181:\n        /* \"#utility.yul\":8553:8556   */\n      dup2\n        /* \"#utility.yul\":8546:8551   */\n      dup2\n        /* \"#utility.yul\":8543:8557   */\n      lt\n        /* \"#utility.yul\":8536:8656   */\n      iszero\n      tag_183\n      jumpi\n        /* \"#utility.yul\":8607:8646   */\n      tag_184\n        /* \"#utility.yul\":8644:8645   */\n      0x00\n        /* \"#utility.yul\":8637:8642   */\n      dup3\n        /* \"#utility.yul\":8607:8646   */\n      tag_80\n      jump\t// in\n    tag_184:\n        /* \"#utility.yul\":8580:8581   */\n      0x01\n        /* \"#utility.yul\":8573:8578   */\n      dup2\n        /* \"#utility.yul\":8569:8582   */\n      add\n        /* \"#utility.yul\":8560:8582   */\n      swap1\n      pop\n        /* \"#utility.yul\":8536:8656   */\n      jump(tag_181)\n    tag_183:\n        /* \"#utility.yul\":8476:8662   */\n      pop\n      pop\n      jump\t// out\n        /* \"#utility.yul\":8668:9211   */\n    tag_82:\n        /* \"#utility.yul\":8769:8771   */\n      0x1f\n        /* \"#utility.yul\":8764:8767   */\n      dup3\n        /* \"#utility.yul\":8761:8772   */\n      gt\n        /* \"#utility.yul\":8758:9204   */\n      iszero\n      tag_186\n      jumpi\n        /* \"#utility.yul\":8803:8841   */\n      tag_187\n        /* \"#utility.yul\":8835:8840   */\n      dup2\n        /* \"#utility.yul\":8803:8841   */\n      tag_71\n      jump\t// in\n    tag_187:\n        /* \"#utility.yul\":8887:8916   */\n      tag_188\n        /* \"#utility.yul\":8905:8915   */\n      dup5\n        /* \"#utility.yul\":8887:8916   */\n      tag_72\n      jump\t// in\n    tag_188:\n        /* \"#utility.yul\":8877:8885   */\n      dup2\n        /* \"#utility.yul\":8873:8917   */\n      add\n        /* \"#utility.yul\":9070:9072   */\n      0x20\n        /* \"#utility.yul\":9058:9068   */\n      dup6\n        /* \"#utility.yul\":9055:9073   */\n      lt\n        /* \"#utility.yul\":9052:9101   */\n      iszero\n      tag_189\n      jumpi\n        /* \"#utility.yul\":9091:9099   */\n      dup2\n        /* \"#utility.yul\":9076:9099   */\n      swap1\n      pop\n        /* \"#utility.yul\":9052:9101   */\n    tag_189:\n        /* \"#utility.yul\":9114:9194   */\n      tag_190\n        /* \"#utility.yul\":9170:9192   */\n      tag_191\n        /* \"#utility.yul\":9188:9191   */\n      dup6\n        /* \"#utility.yul\":9170:9192   */\n      tag_72\n      jump\t// in\n    tag_191:\n        /* \"#utility.yul\":9160:9168   */\n      dup4\n        /* \"#utility.yul\":9156:9193   */\n      add\n        /* \"#utility.yul\":9143:9154   */\n      dup3\n        /* \"#utility.yul\":9114:9194   */\n      tag_81\n      jump\t// in\n    tag_190:\n        /* \"#utility.yul\":8773:9204   */\n      pop\n      pop\n        /* \"#utility.yul\":8758:9204   */\n    tag_186:\n        /* \"#utility.yul\":8668:9211   */\n      pop\n      pop\n      pop\n      jump\t// out\n        /* \"#utility.yul\":9217:9334   */\n    tag_83:\n        /* \"#utility.yul\":9271:9279   */\n      0x00\n        /* \"#utility.yul\":9321:9326   */\n      dup3\n        /* \"#utility.yul\":9315:9319   */\n      dup3\n        /* \"#utility.yul\":9311:9327   */\n      shr\n        /* \"#utility.yul\":9290:9327   */\n      swap1\n      pop\n        /* \"#utility.yul\":9217:9334   */\n      swap3\n      swap2\n      pop\n      pop\n      jump\t// out\n        /* \"#utility.yul\":9340:9509   */\n    tag_84:\n        /* \"#utility.yul\":9384:9390   */\n      0x00\n        /* \"#utility.yul\":9417:9468   */\n      tag_194\n        /* \"#utility.yul\":9465:9466   */\n      0x00\n        /* \"#utility.yul\":9461:9467   */\n      not\n        /* \"#utility.yul\":9453:9458   */\n      dup5\n        /* \"#utility.yul\":9450:9451   */\n      0x08\n        /* \"#utility.yul\":9446:9459   */\n      mul\n        /* \"#utility.yul\":9417:9468   */\n      tag_83\n      jump\t// in\n    tag_194:\n        /* \"#utility.yul\":9413:9469   */\n      not\n        /* \"#utility.yul\":9498:9502   */\n      dup1\n        /* \"#utility.yul\":9492:9496   */\n      dup4\n        /* \"#utility.yul\":9488:9503   */\n      and\n        /* \"#utility.yul\":9478:9503   */\n      swap2\n      pop\n        /* \"#utility.yul\":9391:9509   */\n      pop\n        /* \"#utility.yul\":9340:9509   */\n      swap3\n      swap2\n      pop\n      pop\n      jump\t// out\n        /* \"#utility.yul\":9514:9809   */\n    tag_85:\n        /* \"#utility.yul\":9590:9594   */\n      0x00\n        /* \"#utility.yul\":9736:9765   */\n      tag_196\n        /* \"#utility.yul\":9761:9764   */\n      dup4\n        /* \"#utility.yul\":9755:9759   */\n      dup4\n        /* \"#utility.yul\":9736:9765   */\n      tag_84\n      jump\t// in\n    tag_196:\n        /* \"#utility.yul\":9728:9765   */\n      swap2\n      pop\n        /* \"#utility.yul\":9798:9801   */\n      dup3\n        /* \"#utility.yul\":9795:9796   */\n      0x02\n        /* \"#utility.yul\":9791:9802   */\n      mul\n        /* \"#utility.yul\":9785:9789   */\n      dup3\n        /* \"#utility.yul\":9782:9803   */\n      or\n        /* \"#utility.yul\":9774:9803   */\n      swap1\n      pop\n        /* \"#utility.yul\":9514:9809   */\n      swap3\n      swap2\n      pop\n      pop\n      jump\t// out\n        /* \"#utility.yul\":9814:11209   */\n    tag_42:\n        /* \"#utility.yul\":9931:9968   */\n      tag_198\n        /* \"#utility.yul\":9964:9967   */\n      dup3\n        /* \"#utility.yul\":9931:9968   */\n      tag_50\n      jump\t// in\n    tag_198:\n        /* \"#utility.yul\":10033:10051   */\n      0xffffffffffffffff\n        /* \"#utility.yul\":10025:10031   */\n      dup2\n        /* \"#utility.yul\":10022:10052   */\n      gt\n        /* \"#utility.yul\":10019:10075   */\n      iszero\n      tag_199\n      jumpi\n        /* \"#utility.yul\":10055:10073   */\n      tag_200\n      tag_60\n      jump\t// in\n    tag_200:\n        /* \"#utility.yul\":10019:10075   */\n    tag_199:\n        /* \"#utility.yul\":10099:10137   */\n      tag_201\n        /* \"#utility.yul\":10131:10135   */\n      dup3\n        /* \"#utility.yul\":10125:10136   */\n      sload\n        /* \"#utility.yul\":10099:10137   */\n      tag_26\n      jump\t// in\n    tag_201:\n        /* \"#utility.yul\":10184:10251   */\n      tag_202\n        /* \"#utility.yul\":10244:10250   */\n      dup3\n        /* \"#utility.yul\":10236:10242   */\n      dup3\n        /* \"#utility.yul\":10230:10234   */\n      dup6\n        /* \"#utility.yul\":10184:10251   */\n      tag_82\n      jump\t// in\n    tag_202:\n        /* \"#utility.yul\":10278:10279   */\n      0x00\n        /* \"#utility.yul\":10302:10306   */\n      0x20\n        /* \"#utility.yul\":10289:10306   */\n      swap1\n      pop\n        /* \"#utility.yul\":10334:10336   */\n      0x1f\n        /* \"#utility.yul\":10326:10332   */\n      dup4\n        /* \"#utility.yul\":10323:10337   */\n      gt\n        /* \"#utility.yul\":10351:10352   */\n      0x01\n        /* \"#utility.yul\":10346:10964   */\n      dup2\n      eq\n      tag_204\n      jumpi\n        /* \"#utility.yul\":11008:11009   */\n      0x00\n        /* \"#utility.yul\":11025:11031   */\n      dup5\n        /* \"#utility.yul\":11022:11099   */\n      iszero\n      tag_205\n      jumpi\n        /* \"#utility.yul\":11074:11083   */\n      dup3\n        /* \"#utility.yul\":11069:11072   */\n      dup8\n        /* \"#utility.yul\":11065:11084   */\n      add\n        /* \"#utility.yul\":11059:11085   */\n      mload\n        /* \"#utility.yul\":11050:11085   */\n      swap1\n      pop\n        /* \"#utility.yul\":11022:11099   */\n    tag_205:\n        /* \"#utility.yul\":11125:11192   */\n      tag_206\n        /* \"#utility.yul\":11185:11191   */\n      dup6\n        /* \"#utility.yul\":11178:11183   */\n      dup3\n        /* \"#utility.yul\":11125:11192   */\n      tag_85\n      jump\t// in\n    tag_206:\n        /* \"#utility.yul\":11119:11123   */\n      dup7\n        /* \"#utility.yul\":11112:11193   */\n      sstore\n        /* \"#utility.yul\":10981:11203   */\n      pop\n        /* \"#utility.yul\":10316:11203   */\n      jump(tag_203)\n        /* \"#utility.yul\":10346:10964   */\n    tag_204:\n        /* \"#utility.yul\":10398:10402   */\n      0x1f\n        /* \"#utility.yul\":10394:10403   */\n      not\n        /* \"#utility.yul\":10386:10392   */\n      dup5\n        /* \"#utility.yul\":10382:10404   */\n      and\n        /* \"#utility.yul\":10432:10469   */\n      tag_207\n        /* \"#utility.yul\":10464:10468   */\n      dup7\n        /* \"#utility.yul\":10432:10469   */\n      tag_71\n      jump\t// in\n    tag_207:\n        /* \"#utility.yul\":10491:10492   */\n      0x00\n        /* \"#utility.yul\":10505:10713   */\n    tag_208:\n        /* \"#utility.yul\":10519:10526   */\n      dup3\n        /* \"#utility.yul\":10516:10517   */\n      dup2\n        /* \"#utility.yul\":10513:10527   */\n      lt\n        /* \"#utility.yul\":10505:10713   */\n      iszero\n      tag_210\n      jumpi\n        /* \"#utility.yul\":10598:10607   */\n      dup5\n        /* \"#utility.yul\":10593:10596   */\n      dup10\n        /* \"#utility.yul\":10589:10608   */\n      add\n        /* \"#utility.yul\":10583:10609   */\n      mload\n        /* \"#utility.yul\":10575:10581   */\n      dup3\n        /* \"#utility.yul\":10568:10610   */\n      sstore\n        /* \"#utility.yul\":10649:10650   */\n      0x01\n        /* \"#utility.yul\":10641:10647   */\n      dup3\n        /* \"#utility.yul\":10637:10651   */\n      add\n        /* \"#utility.yul\":10627:10651   */\n      swap2\n      pop\n        /* \"#utility.yul\":10696:10698   */\n      0x20\n        /* \"#utility.yul\":10685:10694   */\n      dup6\n        /* \"#utility.yul\":10681:10699   */\n      add\n        /* \"#utility.yul\":10668:10699   */\n      swap5\n      pop\n        /* \"#utility.yul\":10542:10546   */\n      0x20\n        /* \"#utility.yul\":10539:10540   */\n      dup2\n        /* \"#utility.yul\":10535:10547   */\n      add\n        /* \"#utility.yul\":10530:10547   */\n      swap1\n      pop\n        /* \"#utility.yul\":10505:10713   */\n      jump(tag_208)\n    tag_210:\n        /* \"#utility.yul\":10741:10747   */\n      dup7\n        /* \"#utility.yul\":10732:10739   */\n      dup4\n        /* \"#utility.yul\":10729:10748   */\n      lt\n        /* \"#utility.yul\":10726:10905   */\n      iszero\n      tag_211\n      jumpi\n        /* \"#utility.yul\":10799:10808   */\n      dup5\n        /* \"#utility.yul\":10794:10797   */\n      dup10\n        /* \"#utility.yul\":10790:10809   */\n      add\n        /* \"#utility.yul\":10784:10810   */\n      mload\n        /* \"#utility.yul\":10842:10890   */\n      tag_212\n        /* \"#utility.yul\":10884:10888   */\n      0x1f\n        /* \"#utility.yul\":10876:10882   */\n      dup10\n        /* \"#utility.yul\":10872:10889   */\n      and\n        /* \"#utility.yul\":10861:10870   */\n      dup3\n        /* \"#utility.yul\":10842:10890   */\n      tag_84\n      jump\t// in\n    tag_212:\n        /* \"#utility.yul\":10834:10840   */\n      dup4\n        /* \"#utility.yul\":10827:10891   */\n      sstore\n        /* \"#utility.yul\":10749:10905   */\n      pop\n        /* \"#utility.yul\":10726:10905   */\n    tag_211:\n        /* \"#utility.yul\":10951:10952   */\n      0x01\n        /* \"#utility.yul\":10947:10948   */\n      0x02\n        /* \"#utility.yul\":10939:10945   */\n      dup9\n        /* \"#utility.yul\":10935:10949   */\n      mul\n        /* \"#utility.yul\":10931:10953   */\n      add\n        /* \"#utility.yul\":10925:10929   */\n      dup9\n        /* \"#utility.yul\":10918:10954   */\n      sstore\n        /* \"#utility.yul\":10353:10964   */\n      pop\n      pop\n      pop\n        /* \"#utility.yul\":10316:11203   */\n    tag_203:\n      pop\n        /* \"#utility.yul\":9906:11209   */\n      pop\n      pop\n      pop\n        /* \"#utility.yul\":9814:11209   */\n      pop\n      pop\n      jump\t// out\n\n    auxdata: 0xa26469706673582212208cdf2d6542001eb7e11f442275005b02eb637276e9c80c8468665f7c0fd7a18d64736f6c63430008160033\n}\n",
				"bytecode": {
					"linkReferences": {},
					"object": "60806040525f805560405180602001604052805f81525060019081620000269190620002dd565b5034801562000033575f80fd5b5060405162000ec038038062000ec0833981810160405281019062000059919062000548565b80600190816200006a9190620002dd565b50815f819055505050620005ac565b5f81519050919050565b7f4e487b71000000000000000000000000000000000000000000000000000000005f52604160045260245ffd5b7f4e487b71000000000000000000000000000000000000000000000000000000005f52602260045260245ffd5b5f6002820490506001821680620000f557607f821691505b6020821081036200010b576200010a620000b0565b5b50919050565b5f819050815f5260205f209050919050565b5f6020601f8301049050919050565b5f82821b905092915050565b5f600883026200016f7fffffffffffffffffffffffffffffffffffffffffffffffffffffffffffffffff8262000132565b6200017b868362000132565b95508019841693508086168417925050509392505050565b5f819050919050565b5f819050919050565b5f620001c5620001bf620001b98462000193565b6200019c565b62000193565b9050919050565b5f819050919050565b620001e083620001a5565b620001f8620001ef82620001cc565b8484546200013e565b825550505050565b5f90565b6200020e62000200565b6200021b818484620001d5565b505050565b5b818110156200024257620002365f8262000204565b60018101905062000221565b5050565b601f82111562000291576200025b8162000111565b620002668462000123565b8101602085101562000276578190505b6200028e620002858562000123565b83018262000220565b50505b505050565b5f82821c905092915050565b5f620002b35f198460080262000296565b1980831691505092915050565b5f620002cd8383620002a2565b9150826002028217905092915050565b620002e88262000079565b67ffffffffffffffff81111562000304576200030362000083565b5b620003108254620000dd565b6200031d82828562000246565b5f60209050601f83116001811462000353575f84156200033e578287015190505b6200034a8582620002c0565b865550620003b9565b601f198416620003638662000111565b5f5b828110156200038c5784890151825560018201915060208501945060208101905062000365565b86831015620003ac5784890151620003a8601f891682620002a2565b8355505b6001600288020188555050505b505050505050565b5f604051905090565b5f80fd5b5f80fd5b620003dd8162000193565b8114620003e8575f80fd5b50565b5f81519050620003fb81620003d2565b92915050565b5f80fd5b5f80fd5b5f601f19601f8301169050919050565b620004248262000409565b810181811067ffffffffffffffff8211171562000446576200044562000083565b5b80604052505050565b5f6200045a620003c1565b905062000468828262000419565b919050565b5f67ffffffffffffffff8211156200048a576200048962000083565b5b620004958262000409565b9050602081019050919050565b5f5b83811015620004c1578082015181840152602081019050620004a4565b5f8484015250505050565b5f620004e2620004dc846200046d565b6200044f565b90508281526020810184848401111562000501576200050062000405565b5b6200050e848285620004a2565b509392505050565b5f82601f8301126200052d576200052c62000401565b5b81516200053f848260208601620004cc565b91505092915050565b5f8060408385031215620005615762000560620003ca565b5b5f6200057085828601620003eb565b925050602083015167ffffffffffffffff811115620005945762000593620003ce565b5b620005a28582860162000516565b9150509250929050565b61090680620005ba5f395ff3fe608060405234801561000f575f80fd5b5060043610610055575f3560e01c806306661abd1461005957806306fdde03146100775780632baeceb71461009557806358968e881461009f578063c47f0027146100a9575b5f80fd5b6100616100d9565b60405161006e9190610297565b60405180910390f35b61007f6100de565b60405161008c919061033a565b60405180910390f35b61009d61016a565b005b6100a76101c5565b005b6100c360048036038101906100be9190610497565b6101dd565b6040516100d0919061033a565b60405180910390f35b5f5481565b600180546100eb9061050b565b80601f01602080910402602001604051908101604052809291908181526020018280546101179061050b565b80156101625780601f1061013957610100808354040283529160200191610162565b820191905f5260205f20905b81548152906001019060200180831161014557829003601f168201915b505050505081565b5f8054116101ad576040517f08c379a00000000000000000000000000000000000000000000000000000000081526004016101a4906105ab565b60405180910390fd5b5f808154809291906101be906105f6565b9190505550565b5f808154809291906101d69061061d565b9190505550565b606081600190816101ee9190610801565b50600180546101fc9061050b565b80601f01602080910402602001604051908101604052809291908181526020018280546102289061050b565b80156102735780601f1061024a57610100808354040283529160200191610273565b820191905f5260205f20905b81548152906001019060200180831161025657829003601f168201915b50505050509050919050565b5f819050919050565b6102918161027f565b82525050565b5f6020820190506102aa5f830184610288565b92915050565b5f81519050919050565b5f82825260208201905092915050565b5f5b838110156102e75780820151818401526020810190506102cc565b5f8484015250505050565b5f601f19601f8301169050919050565b5f61030c826102b0565b61031681856102ba565b93506103268185602086016102ca565b61032f816102f2565b840191505092915050565b5f6020820190508181035f8301526103528184610302565b905092915050565b5f604051905090565b5f80fd5b5f80fd5b5f80fd5b5f80fd5b7f4e487b71000000000000000000000000000000000000000000000000000000005f52604160045260245ffd5b6103a9826102f2565b810181811067ffffffffffffffff821117156103c8576103c7610373565b5b80604052505050565b5f6103da61035a565b90506103e682826103a0565b919050565b5f67ffffffffffffffff82111561040557610404610373565b5b61040e826102f2565b9050602081019050919050565b828183375f83830152505050565b5f61043b610436846103eb565b6103d1565b9050828152602081018484840111156104575761045661036f565b5b61046284828561041b565b509392505050565b5f82601f83011261047e5761047d61036b565b5b813561048e848260208601610429565b91505092915050565b5f602082840312156104ac576104ab610363565b5b5f82013567ffffffffffffffff8111156104c9576104c8610367565b5b6104d58482850161046a565b91505092915050565b7f4e487b71000000000000000000000000000000000000000000000000000000005f52602260045260245ffd5b5f600282049050600182168061052257607f821691505b602082108103610535576105346104de565b5b50919050565b7f74686520636f75746572206d7573742062652067726561746572207468616e205f8201527f3000000000000000000000000000000000000000000000000000000000000000602082015250565b5f6105956021836102ba565b91506105a08261053b565b604082019050919050565b5f6020820190508181035f8301526105c281610589565b9050919050565b7f4e487b71000000000000000000000000000000000000000000000000000000005f52601160045260245ffd5b5f6106008261027f565b91505f8203610612576106116105c9565b5b600182039050919050565b5f6106278261027f565b91507fffffffffffffffffffffffffffffffffffffffffffffffffffffffffffffffff8203610659576106586105c9565b5b600182019050919050565b5f819050815f5260205f209050919050565b5f6020601f8301049050919050565b5f82821b905092915050565b5f600883026106c07fffffffffffffffffffffffffffffffffffffffffffffffffffffffffffffffff82610685565b6106ca8683610685565b95508019841693508086168417925050509392505050565b5f819050919050565b5f6107056107006106fb8461027f565b6106e2565b61027f565b9050919050565b5f819050919050565b61071e836106eb565b61073261072a8261070c565b848454610691565b825550505050565b5f90565b61074661073a565b610751818484610715565b505050565b5b81811015610774576107695f8261073e565b600181019050610757565b5050565b601f8211156107b95761078a81610664565b61079384610676565b810160208510156107a2578190505b6107b66107ae85610676565b830182610756565b50505b505050565b5f82821c905092915050565b5f6107d95f19846008026107be565b1980831691505092915050565b5f6107f183836107ca565b9150826002028217905092915050565b61080a826102b0565b67ffffffffffffffff81111561082357610822610373565b5b61082d825461050b565b610838828285610778565b5f60209050601f831160018114610869575f8415610857578287015190505b61086185826107e6565b8655506108c8565b601f19841661087786610664565b5f5b8281101561089e57848901518255600182019150602085019450602081019050610879565b868310156108bb57848901516108b7601f8916826107ca565b8355505b6001600288020188555050505b50505050505056fea26469706673582212208cdf2d6542001eb7e11f442275005b02eb637276e9c80c8468665f7c0fd7a18d64736f6c63430008160033",
					"opcodes": "PUSH1 0x80 PUSH1 0x40 MSTORE PUSH0 DUP1 SSTORE PUSH1 0x40 MLOAD DUP1 PUSH1 0x20 ADD PUSH1 0x40 MSTORE DUP1 PUSH0 DUP2 MSTORE POP PUSH1 0x1 SWAP1 DUP2 PUSH3 0x26 SWAP2 SWAP1 PUSH3 0x2DD JUMP JUMPDEST POP CALLVALUE DUP1 ISZERO PUSH3 0x33 JUMPI PUSH0 DUP1 REVERT JUMPDEST POP PUSH1 0x40 MLOAD PUSH3 0xEC0 CODESIZE SUB DUP1 PUSH3 0xEC0 DUP4 CODECOPY DUP2 DUP2 ADD PUSH1 0x40 MSTORE DUP2 ADD SWAP1 PUSH3 0x59 SWAP2 SWAP1 PUSH3 0x548 JUMP JUMPDEST DUP1 PUSH1 0x1 SWAP1 DUP2 PUSH3 0x6A SWAP2 SWAP1 PUSH3 0x2DD JUMP JUMPDEST POP DUP2 PUSH0 DUP2 SWAP1 SSTORE POP POP POP PUSH3 0x5AC JUMP JUMPDEST PUSH0 DUP2 MLOAD SWAP1 POP SWAP2 SWAP1 POP JUMP JUMPDEST PUSH32 0x4E487B7100000000000000000000000000000000000000000000000000000000 PUSH0 MSTORE PUSH1 0x41 PUSH1 0x4 MSTORE PUSH1 0x24 PUSH0 REVERT JUMPDEST PUSH32 0x4E487B7100000000000000000000000000000000000000000000000000000000 PUSH0 MSTORE PUSH1 0x22 PUSH1 0x4 MSTORE PUSH1 0x24 PUSH0 REVERT JUMPDEST PUSH0 PUSH1 0x2 DUP3 DIV SWAP1 POP PUSH1 0x1 DUP3 AND DUP1 PUSH3 0xF5 JUMPI PUSH1 0x7F DUP3 AND SWAP2 POP JUMPDEST PUSH1 0x20 DUP3 LT DUP2 SUB PUSH3 0x10B JUMPI PUSH3 0x10A PUSH3 0xB0 JUMP JUMPDEST JUMPDEST POP SWAP2 SWAP1 POP JUMP JUMPDEST PUSH0 DUP2 SWAP1 POP DUP2 PUSH0 MSTORE PUSH1 0x20 PUSH0 KECCAK256 SWAP1 POP SWAP2 SWAP1 POP JUMP JUMPDEST PUSH0 PUSH1 0x20 PUSH1 0x1F DUP4 ADD DIV SWAP1 POP SWAP2 SWAP1 POP JUMP JUMPDEST PUSH0 DUP3 DUP3 SHL SWAP1 POP SWAP3 SWAP2 POP POP JUMP JUMPDEST PUSH0 PUSH1 0x8 DUP4 MUL PUSH3 0x16F PUSH32 0xFFFFFFFFFFFFFFFFFFFFFFFFFFFFFFFFFFFFFFFFFFFFFFFFFFFFFFFFFFFFFFFF DUP3 PUSH3 0x132 JUMP JUMPDEST PUSH3 0x17B DUP7 DUP4 PUSH3 0x132 JUMP JUMPDEST SWAP6 POP DUP1 NOT DUP5 AND SWAP4 POP DUP1 DUP7 AND DUP5 OR SWAP3 POP POP POP SWAP4 SWAP3 POP POP POP JUMP JUMPDEST PUSH0 DUP2 SWAP1 POP SWAP2 SWAP1 POP JUMP JUMPDEST PUSH0 DUP2 SWAP1 POP SWAP2 SWAP1 POP JUMP JUMPDEST PUSH0 PUSH3 0x1C5 PUSH3 0x1BF PUSH3 0x1B9 DUP5 PUSH3 0x193 JUMP JUMPDEST PUSH3 0x19C JUMP JUMPDEST PUSH3 0x193 JUMP JUMPDEST SWAP1 POP SWAP2 SWAP1 POP JUMP JUMPDEST PUSH0 DUP2 SWAP1 POP SWAP2 SWAP1 POP JUMP JUMPDEST PUSH3 0x1E0 DUP4 PUSH3 0x1A5 JUMP JUMPDEST PUSH3 0x1F8 PUSH3 0x1EF DUP3 PUSH3 0x1CC JUMP JUMPDEST DUP5 DUP5 SLOAD PUSH3 0x13E JUMP JUMPDEST DUP3 SSTORE POP POP POP POP JUMP JUMPDEST PUSH0 SWAP1 JUMP JUMPDEST PUSH3 0x20E PUSH3 0x200 JUMP JUMPDEST PUSH3 0x21B DUP2 DUP5 DUP5 PUSH3 0x1D5 JUMP JUMPDEST POP POP POP JUMP JUMPDEST JUMPDEST DUP2 DUP2 LT ISZERO PUSH3 0x242 JUMPI PUSH3 0x236 PUSH0 DUP3 PUSH3 0x204 JUMP JUMPDEST PUSH1 0x1 DUP2 ADD SWAP1 POP PUSH3 0x221 JUMP JUMPDEST POP POP JUMP JUMPDEST PUSH1 0x1F DUP3 GT ISZERO PUSH3 0x291 JUMPI PUSH3 0x25B DUP2 PUSH3 0x111 JUMP JUMPDEST PUSH3 0x266 DUP5 PUSH3 0x123 JUMP JUMPDEST DUP2 ADD PUSH1 0x20 DUP6 LT ISZERO PUSH3 0x276 JUMPI DUP2 SWAP1 POP JUMPDEST PUSH3 0x28E PUSH3 0x285 DUP6 PUSH3 0x123 JUMP JUMPDEST DUP4 ADD DUP3 PUSH3 0x220 JUMP JUMPDEST POP POP JUMPDEST POP POP POP JUMP JUMPDEST PUSH0 DUP3 DUP3 SHR SWAP1 POP SWAP3 SWAP2 POP POP JUMP JUMPDEST PUSH0 PUSH3 0x2B3 PUSH0 NOT DUP5 PUSH1 0x8 MUL PUSH3 0x296 JUMP JUMPDEST NOT DUP1 DUP4 AND SWAP2 POP POP SWAP3 SWAP2 POP POP JUMP JUMPDEST PUSH0 PUSH3 0x2CD DUP4 DUP4 PUSH3 0x2A2 JUMP JUMPDEST SWAP2 POP DUP3 PUSH1 0x2 MUL DUP3 OR SWAP1 POP SWAP3 SWAP2 POP POP JUMP JUMPDEST PUSH3 0x2E8 DUP3 PUSH3 0x79 JUMP JUMPDEST PUSH8 0xFFFFFFFFFFFFFFFF DUP2 GT ISZERO PUSH3 0x304 JUMPI PUSH3 0x303 PUSH3 0x83 JUMP JUMPDEST JUMPDEST PUSH3 0x310 DUP3 SLOAD PUSH3 0xDD JUMP JUMPDEST PUSH3 0x31D DUP3 DUP3 DUP6 PUSH3 0x246 JUMP JUMPDEST PUSH0 PUSH1 0x20 SWAP1 POP PUSH1 0x1F DUP4 GT PUSH1 0x1 DUP2 EQ PUSH3 0x353 JUMPI PUSH0 DUP5 ISZERO PUSH3 0x33E JUMPI DUP3 DUP8 ADD MLOAD SWAP1 POP JUMPDEST PUSH3 0x34A DUP6 DUP3 PUSH3 0x2C0 JUMP JUMPDEST DUP7 SSTORE POP PUSH3 0x3B9 JUMP JUMPDEST PUSH1 0x1F NOT DUP5 AND PUSH3 0x363 DUP7 PUSH3 0x111 JUMP JUMPDEST PUSH0 JUMPDEST DUP3 DUP2 LT ISZERO PUSH3 0x38C JUMPI DUP5 DUP10 ADD MLOAD DUP3 SSTORE PUSH1 0x1 DUP3 ADD SWAP2 POP PUSH1 0x20 DUP6 ADD SWAP5 POP PUSH1 0x20 DUP2 ADD SWAP1 POP PUSH3 0x365 JUMP JUMPDEST DUP7 DUP4 LT ISZERO PUSH3 0x3AC JUMPI DUP5 DUP10 ADD MLOAD PUSH3 0x3A8 PUSH1 0x1F DUP10 AND DUP3 PUSH3 0x2A2 JUMP JUMPDEST DUP4 SSTORE POP JUMPDEST PUSH1 0x1 PUSH1 0x2 DUP9 MUL ADD DUP9 SSTORE POP POP POP JUMPDEST POP POP POP POP POP POP JUMP JUMPDEST PUSH0 PUSH1 0x40 MLOAD SWAP1 POP SWAP1 JUMP JUMPDEST PUSH0 DUP1 REVERT JUMPDEST PUSH0 DUP1 REVERT JUMPDEST PUSH3 0x3DD DUP2 PUSH3 0x193 JUMP JUMPDEST DUP2 EQ PUSH3 0x3E8 JUMPI PUSH0 DUP1 REVERT JUMPDEST POP JUMP JUMPDEST PUSH0 DUP2 MLOAD SWAP1 POP PUSH3 0x3FB DUP2 PUSH3 0x3D2 JUMP JUMPDEST SWAP3 SWAP2 POP POP JUMP JUMPDEST PUSH0 DUP1 REVERT JUMPDEST PUSH0 DUP1 REVERT JUMPDEST PUSH0 PUSH1 0x1F NOT PUSH1 0x1F DUP4 ADD AND SWAP1 POP SWAP2 SWAP1 POP JUMP JUMPDEST PUSH3 0x424 DUP3 PUSH3 0x409 JUMP JUMPDEST DUP2 ADD DUP2 DUP2 LT PUSH8 0xFFFFFFFFFFFFFFFF DUP3 GT OR ISZERO PUSH3 0x446 JUMPI PUSH3 0x445 PUSH3 0x83 JUMP JUMPDEST JUMPDEST DUP1 PUSH1 0x40 MSTORE POP POP POP JUMP JUMPDEST PUSH0 PUSH3 0x45A PUSH3 0x3C1 JUMP JUMPDEST SWAP1 POP PUSH3 0x468 DUP3 DUP3 PUSH3 0x419 JUMP JUMPDEST SWAP2 SWAP1 POP JUMP JUMPDEST PUSH0 PUSH8 0xFFFFFFFFFFFFFFFF DUP3 GT ISZERO PUSH3 0x48A JUMPI PUSH3 0x489 PUSH3 0x83 JUMP JUMPDEST JUMPDEST PUSH3 0x495 DUP3 PUSH3 0x409 JUMP JUMPDEST SWAP1 POP PUSH1 0x20 DUP2 ADD SWAP1 POP SWAP2 SWAP1 POP JUMP JUMPDEST PUSH0 JUMPDEST DUP4 DUP2 LT ISZERO PUSH3 0x4C1 JUMPI DUP1 DUP3 ADD MLOAD DUP2 DUP5 ADD MSTORE PUSH1 0x20 DUP2 ADD SWAP1 POP PUSH3 0x4A4 JUMP JUMPDEST PUSH0 DUP5 DUP5 ADD MSTORE POP POP POP POP JUMP JUMPDEST PUSH0 PUSH3 0x4E2 PUSH3 0x4DC DUP5 PUSH3 0x46D JUMP JUMPDEST PUSH3 0x44F JUMP JUMPDEST SWAP1 POP DUP3 DUP2 MSTORE PUSH1 0x20 DUP2 ADD DUP5 DUP5 DUP5 ADD GT ISZERO PUSH3 0x501 JUMPI PUSH3 0x500 PUSH3 0x405 JUMP JUMPDEST JUMPDEST PUSH3 0x50E DUP5 DUP3 DUP6 PUSH3 0x4A2 JUMP JUMPDEST POP SWAP4 SWAP3 POP POP POP JUMP JUMPDEST PUSH0 DUP3 PUSH1 0x1F DUP4 ADD SLT PUSH3 0x52D JUMPI PUSH3 0x52C PUSH3 0x401 JUMP JUMPDEST JUMPDEST DUP2 MLOAD PUSH3 0x53F DUP5 DUP3 PUSH1 0x20 DUP7 ADD PUSH3 0x4CC JUMP JUMPDEST SWAP2 POP POP SWAP3 SWAP2 POP POP JUMP JUMPDEST PUSH0 DUP1 PUSH1 0x40 DUP4 DUP6 SUB SLT ISZERO PUSH3 0x561 JUMPI PUSH3 0x560 PUSH3 0x3CA JUMP JUMPDEST JUMPDEST PUSH0 PUSH3 0x570 DUP6 DUP3 DUP7 ADD PUSH3 0x3EB JUMP JUMPDEST SWAP3 POP POP PUSH1 0x20 DUP4 ADD MLOAD PUSH8 0xFFFFFFFFFFFFFFFF DUP2 GT ISZERO PUSH3 0x594 JUMPI PUSH3 0x593 PUSH3 0x3CE JUMP JUMPDEST JUMPDEST PUSH3 0x5A2 DUP6 DUP3 DUP7 ADD PUSH3 0x516 JUMP JUMPDEST SWAP2 POP POP SWAP3 POP SWAP3 SWAP1 POP JUMP JUMPDEST PUSH2 0x906 DUP1 PUSH3 0x5BA PUSH0 CODECOPY PUSH0 RETURN INVALID PUSH1 0x80 PUSH1 0x40 MSTORE CALLVALUE DUP1 ISZERO PUSH2 0xF JUMPI PUSH0 DUP1 REVERT JUMPDEST POP PUSH1 0x4 CALLDATASIZE LT PUSH2 0x55 JUMPI PUSH0 CALLDATALOAD PUSH1 0xE0 SHR DUP1 PUSH4 0x6661ABD EQ PUSH2 0x59 JUMPI DUP1 PUSH4 0x6FDDE03 EQ PUSH2 0x77 JUMPI DUP1 PUSH4 0x2BAECEB7 EQ PUSH2 0x95 JUMPI DUP1 PUSH4 0x58968E88 EQ PUSH2 0x9F JUMPI DUP1 PUSH4 0xC47F0027 EQ PUSH2 0xA9 JUMPI JUMPDEST PUSH0 DUP1 REVERT JUMPDEST PUSH2 0x61 PUSH2 0xD9 JUMP JUMPDEST PUSH1 0x40 MLOAD PUSH2 0x6E SWAP2 SWAP1 PUSH2 0x297 JUMP JUMPDEST PUSH1 0x40 MLOAD DUP1 SWAP2 SUB SWAP1 RETURN JUMPDEST PUSH2 0x7F PUSH2 0xDE JUMP JUMPDEST PUSH1 0x40 MLOAD PUSH2 0x8C SWAP2 SWAP1 PUSH2 0x33A JUMP JUMPDEST PUSH1 0x40 MLOAD DUP1 SWAP2 SUB SWAP1 RETURN JUMPDEST PUSH2 0x9D PUSH2 0x16A JUMP JUMPDEST STOP JUMPDEST PUSH2 0xA7 PUSH2 0x1C5 JUMP JUMPDEST STOP JUMPDEST PUSH2 0xC3 PUSH1 0x4 DUP1 CALLDATASIZE SUB DUP2 ADD SWAP1 PUSH2 0xBE SWAP2 SWAP1 PUSH2 0x497 JUMP JUMPDEST PUSH2 0x1DD JUMP JUMPDEST PUSH1 0x40 MLOAD PUSH2 0xD0 SWAP2 SWAP1 PUSH2 0x33A JUMP JUMPDEST PUSH1 0x40 MLOAD DUP1 SWAP2 SUB SWAP1 RETURN JUMPDEST PUSH0 SLOAD DUP2 JUMP JUMPDEST PUSH1 0x1 DUP1 SLOAD PUSH2 0xEB SWAP1 PUSH2 0x50B JUMP JUMPDEST DUP1 PUSH1 0x1F ADD PUSH1 0x20 DUP1 SWAP2 DIV MUL PUSH1 0x20 ADD PUSH1 0x40 MLOAD SWAP1 DUP2 ADD PUSH1 0x40 MSTORE DUP1 SWAP3 SWAP2 SWAP1 DUP2 DUP2 MSTORE PUSH1 0x20 ADD DUP3 DUP1 SLOAD PUSH2 0x117 SWAP1 PUSH2 0x50B JUMP JUMPDEST DUP1 ISZERO PUSH2 0x162 JUMPI DUP1 PUSH1 0x1F LT PUSH2 0x139 JUMPI PUSH2 0x100 DUP1 DUP4 SLOAD DIV MUL DUP4 MSTORE SWAP2 PUSH1 0x20 ADD SWAP2 PUSH2 0x162 JUMP JUMPDEST DUP3 ADD SWAP2 SWAP1 PUSH0 MSTORE PUSH1 0x20 PUSH0 KECCAK256 SWAP1 JUMPDEST DUP2 SLOAD DUP2 MSTORE SWAP1 PUSH1 0x1 ADD SWAP1 PUSH1 0x20 ADD DUP1 DUP4 GT PUSH2 0x145 JUMPI DUP3 SWAP1 SUB PUSH1 0x1F AND DUP3 ADD SWAP2 JUMPDEST POP POP POP POP POP DUP2 JUMP JUMPDEST PUSH0 DUP1 SLOAD GT PUSH2 0x1AD JUMPI PUSH1 0x40 MLOAD PUSH32 0x8C379A000000000000000000000000000000000000000000000000000000000 DUP2 MSTORE PUSH1 0x4 ADD PUSH2 0x1A4 SWAP1 PUSH2 0x5AB JUMP JUMPDEST PUSH1 0x40 MLOAD DUP1 SWAP2 SUB SWAP1 REVERT JUMPDEST PUSH0 DUP1 DUP2 SLOAD DUP1 SWAP3 SWAP2 SWAP1 PUSH2 0x1BE SWAP1 PUSH2 0x5F6 JUMP JUMPDEST SWAP2 SWAP1 POP SSTORE POP JUMP JUMPDEST PUSH0 DUP1 DUP2 SLOAD DUP1 SWAP3 SWAP2 SWAP1 PUSH2 0x1D6 SWAP1 PUSH2 0x61D JUMP JUMPDEST SWAP2 SWAP1 POP SSTORE POP JUMP JUMPDEST PUSH1 0x60 DUP2 PUSH1 0x1 SWAP1 DUP2 PUSH2 0x1EE SWAP2 SWAP1 PUSH2 0x801 JUMP JUMPDEST POP PUSH1 0x1 DUP1 SLOAD PUSH2 0x1FC SWAP1 PUSH2 0x50B JUMP JUMPDEST DUP1 PUSH1 0x1F ADD PUSH1 0x20 DUP1 SWAP2 DIV MUL PUSH1 0x20 ADD PUSH1 0x40 MLOAD SWAP1 DUP2 ADD PUSH1 0x40 MSTORE DUP1 SWAP3 SWAP2 SWAP1 DUP2 DUP2 MSTORE PUSH1 0x20 ADD DUP3 DUP1 SLOAD PUSH2 0x228 SWAP1 PUSH2 0x50B JUMP JUMPDEST DUP1 ISZERO PUSH2 0x273 JUMPI DUP1 PUSH1 0x1F LT PUSH2 0x24A JUMPI PUSH2 0x100 DUP1 DUP4 SLOAD DIV MUL DUP4 MSTORE SWAP2 PUSH1 0x20 ADD SWAP2 PUSH2 0x273 JUMP JUMPDEST DUP3 ADD SWAP2 SWAP1 PUSH0 MSTORE PUSH1 0x20 PUSH0 KECCAK256 SWAP1 JUMPDEST DUP2 SLOAD DUP2 MSTORE SWAP1 PUSH1 0x1 ADD SWAP1 PUSH1 0x20 ADD DUP1 DUP4 GT PUSH2 0x256 JUMPI DUP3 SWAP1 SUB PUSH1 0x1F AND DUP3 ADD SWAP2 JUMPDEST POP POP POP POP POP SWAP1 POP SWAP2 SWAP1 POP JUMP JUMPDEST PUSH0 DUP2 SWAP1 POP SWAP2 SWAP1 POP JUMP JUMPDEST PUSH2 0x291 DUP2 PUSH2 0x27F JUMP JUMPDEST DUP3 MSTORE POP POP JUMP JUMPDEST PUSH0 PUSH1 0x20 DUP3 ADD SWAP1 POP PUSH2 0x2AA PUSH0 DUP4 ADD DUP5 PUSH2 0x288 JUMP JUMPDEST SWAP3 SWAP2 POP POP JUMP JUMPDEST PUSH0 DUP2 MLOAD SWAP1 POP SWAP2 SWAP1 POP JUMP JUMPDEST PUSH0 DUP3 DUP3 MSTORE PUSH1 0x20 DUP3 ADD SWAP1 POP SWAP3 SWAP2 POP POP JUMP JUMPDEST PUSH0 JUMPDEST DUP4 DUP2 LT ISZERO PUSH2 0x2E7 JUMPI DUP1 DUP3 ADD MLOAD DUP2 DUP5 ADD MSTORE PUSH1 0x20 DUP2 ADD SWAP1 POP PUSH2 0x2CC JUMP JUMPDEST PUSH0 DUP5 DUP5 ADD MSTORE POP POP POP POP JUMP JUMPDEST PUSH0 PUSH1 0x1F NOT PUSH1 0x1F DUP4 ADD AND SWAP1 POP SWAP2 SWAP1 POP JUMP JUMPDEST PUSH0 PUSH2 0x30C DUP3 PUSH2 0x2B0 JUMP JUMPDEST PUSH2 0x316 DUP2 DUP6 PUSH2 0x2BA JUMP JUMPDEST SWAP4 POP PUSH2 0x326 DUP2 DUP6 PUSH1 0x20 DUP7 ADD PUSH2 0x2CA JUMP JUMPDEST PUSH2 0x32F DUP2 PUSH2 0x2F2 JUMP JUMPDEST DUP5 ADD SWAP2 POP POP SWAP3 SWAP2 POP POP JUMP JUMPDEST PUSH0 PUSH1 0x20 DUP3 ADD SWAP1 POP DUP2 DUP2 SUB PUSH0 DUP4 ADD MSTORE PUSH2 0x352 DUP2 DUP5 PUSH2 0x302 JUMP JUMPDEST SWAP1 POP SWAP3 SWAP2 POP POP JUMP JUMPDEST PUSH0 PUSH1 0x40 MLOAD SWAP1 POP SWAP1 JUMP JUMPDEST PUSH0 DUP1 REVERT JUMPDEST PUSH0 DUP1 REVERT JUMPDEST PUSH0 DUP1 REVERT JUMPDEST PUSH0 DUP1 REVERT JUMPDEST PUSH32 0x4E487B7100000000000000000000000000000000000000000000000000000000 PUSH0 MSTORE PUSH1 0x41 PUSH1 0x4 MSTORE PUSH1 0x24 PUSH0 REVERT JUMPDEST PUSH2 0x3A9 DUP3 PUSH2 0x2F2 JUMP JUMPDEST DUP2 ADD DUP2 DUP2 LT PUSH8 0xFFFFFFFFFFFFFFFF DUP3 GT OR ISZERO PUSH2 0x3C8 JUMPI PUSH2 0x3C7 PUSH2 0x373 JUMP JUMPDEST JUMPDEST DUP1 PUSH1 0x40 MSTORE POP POP POP JUMP JUMPDEST PUSH0 PUSH2 0x3DA PUSH2 0x35A JUMP JUMPDEST SWAP1 POP PUSH2 0x3E6 DUP3 DUP3 PUSH2 0x3A0 JUMP JUMPDEST SWAP2 SWAP1 POP JUMP JUMPDEST PUSH0 PUSH8 0xFFFFFFFFFFFFFFFF DUP3 GT ISZERO PUSH2 0x405 JUMPI PUSH2 0x404 PUSH2 0x373 JUMP JUMPDEST JUMPDEST PUSH2 0x40E DUP3 PUSH2 0x2F2 JUMP JUMPDEST SWAP1 POP PUSH1 0x20 DUP2 ADD SWAP1 POP SWAP2 SWAP1 POP JUMP JUMPDEST DUP3 DUP2 DUP4 CALLDATACOPY PUSH0 DUP4 DUP4 ADD MSTORE POP POP POP JUMP JUMPDEST PUSH0 PUSH2 0x43B PUSH2 0x436 DUP5 PUSH2 0x3EB JUMP JUMPDEST PUSH2 0x3D1 JUMP JUMPDEST SWAP1 POP DUP3 DUP2 MSTORE PUSH1 0x20 DUP2 ADD DUP5 DUP5 DUP5 ADD GT ISZERO PUSH2 0x457 JUMPI PUSH2 0x456 PUSH2 0x36F JUMP JUMPDEST JUMPDEST PUSH2 0x462 DUP5 DUP3 DUP6 PUSH2 0x41B JUMP JUMPDEST POP SWAP4 SWAP3 POP POP POP JUMP JUMPDEST PUSH0 DUP3 PUSH1 0x1F DUP4 ADD SLT PUSH2 0x47E JUMPI PUSH2 0x47D PUSH2 0x36B JUMP JUMPDEST JUMPDEST DUP2 CALLDATALOAD PUSH2 0x48E DUP5 DUP3 PUSH1 0x20 DUP7 ADD PUSH2 0x429 JUMP JUMPDEST SWAP2 POP POP SWAP3 SWAP2 POP POP JUMP JUMPDEST PUSH0 PUSH1 0x20 DUP3 DUP5 SUB SLT ISZERO PUSH2 0x4AC JUMPI PUSH2 0x4AB PUSH2 0x363 JUMP JUMPDEST JUMPDEST PUSH0 DUP3 ADD CALLDATALOAD PUSH8 0xFFFFFFFFFFFFFFFF DUP2 GT ISZERO PUSH2 0x4C9 JUMPI PUSH2 0x4C8 PUSH2 0x367 JUMP JUMPDEST JUMPDEST PUSH2 0x4D5 DUP5 DUP3 DUP6 ADD PUSH2 0x46A JUMP JUMPDEST SWAP2 POP POP SWAP3 SWAP2 POP POP JUMP JUMPDEST PUSH32 0x4E487B7100000000000000000000000000000000000000000000000000000000 PUSH0 MSTORE PUSH1 0x22 PUSH1 0x4 MSTORE PUSH1 0x24 PUSH0 REVERT JUMPDEST PUSH0 PUSH1 0x2 DUP3 DIV SWAP1 POP PUSH1 0x1 DUP3 AND DUP1 PUSH2 0x522 JUMPI PUSH1 0x7F DUP3 AND SWAP2 POP JUMPDEST PUSH1 0x20 DUP3 LT DUP2 SUB PUSH2 0x535 JUMPI PUSH2 0x534 PUSH2 0x4DE JUMP JUMPDEST JUMPDEST POP SWAP2 SWAP1 POP JUMP JUMPDEST PUSH32 0x74686520636F75746572206D7573742062652067726561746572207468616E20 PUSH0 DUP3 ADD MSTORE PUSH32 0x3000000000000000000000000000000000000000000000000000000000000000 PUSH1 0x20 DUP3 ADD MSTORE POP JUMP JUMPDEST PUSH0 PUSH2 0x595 PUSH1 0x21 DUP4 PUSH2 0x2BA JUMP JUMPDEST SWAP2 POP PUSH2 0x5A0 DUP3 PUSH2 0x53B JUMP JUMPDEST PUSH1 0x40 DUP3 ADD SWAP1 POP SWAP2 SWAP1 POP JUMP JUMPDEST PUSH0 PUSH1 0x20 DUP3 ADD SWAP1 POP DUP2 DUP2 SUB PUSH0 DUP4 ADD MSTORE PUSH2 0x5C2 DUP2 PUSH2 0x589 JUMP JUMPDEST SWAP1 POP SWAP2 SWAP1 POP JUMP JUMPDEST PUSH32 0x4E487B7100000000000000000000000000000000000000000000000000000000 PUSH0 MSTORE PUSH1 0x11 PUSH1 0x4 MSTORE PUSH1 0x24 PUSH0 REVERT JUMPDEST PUSH0 PUSH2 0x600 DUP3 PUSH2 0x27F JUMP JUMPDEST SWAP2 POP PUSH0 DUP3 SUB PUSH2 0x612 JUMPI PUSH2 0x611 PUSH2 0x5C9 JUMP JUMPDEST JUMPDEST PUSH1 0x1 DUP3 SUB SWAP1 POP SWAP2 SWAP1 POP JUMP JUMPDEST PUSH0 PUSH2 0x627 DUP3 PUSH2 0x27F JUMP JUMPDEST SWAP2 POP PUSH32 0xFFFFFFFFFFFFFFFFFFFFFFFFFFFFFFFFFFFFFFFFFFFFFFFFFFFFFFFFFFFFFFFF DUP3 SUB PUSH2 0x659 JUMPI PUSH2 0x658 PUSH2 0x5C9 JUMP JUMPDEST JUMPDEST PUSH1 0x1 DUP3 ADD SWAP1 POP SWAP2 SWAP1 POP JUMP JUMPDEST PUSH0 DUP2 SWAP1 POP DUP2 PUSH0 MSTORE PUSH1 0x20 PUSH0 KECCAK256 SWAP1 POP SWAP2 SWAP1 POP JUMP JUMPDEST PUSH0 PUSH1 0x20 PUSH1 0x1F DUP4 ADD DIV SWAP1 POP SWAP2 SWAP1 POP JUMP JUMPDEST PUSH0 DUP3 DUP3 SHL SWAP1 POP SWAP3 SWAP2 POP POP JUMP JUMPDEST PUSH0 PUSH1 0x8 DUP4 MUL PUSH2 0x6C0 PUSH32 0xFFFFFFFFFFFFFFFFFFFFFFFFFFFFFFFFFFFFFFFFFFFFFFFFFFFFFFFFFFFFFFFF DUP3 PUSH2 0x685 JUMP JUMPDEST PUSH2 0x6CA DUP7 DUP4 PUSH2 0x685 JUMP JUMPDEST SWAP6 POP DUP1 NOT DUP5 AND SWAP4 POP DUP1 DUP7 AND DUP5 OR SWAP3 POP POP POP SWAP4 SWAP3 POP POP POP JUMP JUMPDEST PUSH0 DUP2 SWAP1 POP SWAP2 SWAP1 POP JUMP JUMPDEST PUSH0 PUSH2 0x705 PUSH2 0x700 PUSH2 0x6FB DUP5 PUSH2 0x27F JUMP JUMPDEST PUSH2 0x6E2 JUMP JUMPDEST PUSH2 0x27F JUMP JUMPDEST SWAP1 POP SWAP2 SWAP1 POP JUMP JUMPDEST PUSH0 DUP2 SWAP1 POP SWAP2 SWAP1 POP JUMP JUMPDEST PUSH2 0x71E DUP4 PUSH2 0x6EB JUMP JUMPDEST PUSH2 0x732 PUSH2 0x72A DUP3 PUSH2 0x70C JUMP JUMPDEST DUP5 DUP5 SLOAD PUSH2 0x691 JUMP JUMPDEST DUP3 SSTORE POP POP POP POP JUMP JUMPDEST PUSH0 SWAP1 JUMP JUMPDEST PUSH2 0x746 PUSH2 0x73A JUMP JUMPDEST PUSH2 0x751 DUP2 DUP5 DUP5 PUSH2 0x715 JUMP JUMPDEST POP POP POP JUMP JUMPDEST JUMPDEST DUP2 DUP2 LT ISZERO PUSH2 0x774 JUMPI PUSH2 0x769 PUSH0 DUP3 PUSH2 0x73E JUMP JUMPDEST PUSH1 0x1 DUP2 ADD SWAP1 POP PUSH2 0x757 JUMP JUMPDEST POP POP JUMP JUMPDEST PUSH1 0x1F DUP3 GT ISZERO PUSH2 0x7B9 JUMPI PUSH2 0x78A DUP2 PUSH2 0x664 JUMP JUMPDEST PUSH2 0x793 DUP5 PUSH2 0x676 JUMP JUMPDEST DUP2 ADD PUSH1 0x20 DUP6 LT ISZERO PUSH2 0x7A2 JUMPI DUP2 SWAP1 POP JUMPDEST PUSH2 0x7B6 PUSH2 0x7AE DUP6 PUSH2 0x676 JUMP JUMPDEST DUP4 ADD DUP3 PUSH2 0x756 JUMP JUMPDEST POP POP JUMPDEST POP POP POP JUMP JUMPDEST PUSH0 DUP3 DUP3 SHR SWAP1 POP SWAP3 SWAP2 POP POP JUMP JUMPDEST PUSH0 PUSH2 0x7D9 PUSH0 NOT DUP5 PUSH1 0x8 MUL PUSH2 0x7BE JUMP JUMPDEST NOT DUP1 DUP4 AND SWAP2 POP POP SWAP3 SWAP2 POP POP JUMP JUMPDEST PUSH0 PUSH2 0x7F1 DUP4 DUP4 PUSH2 0x7CA JUMP JUMPDEST SWAP2 POP DUP3 PUSH1 0x2 MUL DUP3 OR SWAP1 POP SWAP3 SWAP2 POP POP JUMP JUMPDEST PUSH2 0x80A DUP3 PUSH2 0x2B0 JUMP JUMPDEST PUSH8 0xFFFFFFFFFFFFFFFF DUP2 GT ISZERO PUSH2 0x823 JUMPI PUSH2 0x822 PUSH2 0x373 JUMP JUMPDEST JUMPDEST PUSH2 0x82D DUP3 SLOAD PUSH2 0x50B JUMP JUMPDEST PUSH2 0x838 DUP3 DUP3 DUP6 PUSH2 0x778 JUMP JUMPDEST PUSH0 PUSH1 0x20 SWAP1 POP PUSH1 0x1F DUP4 GT PUSH1 0x1 DUP2 EQ PUSH2 0x869 JUMPI PUSH0 DUP5 ISZERO PUSH2 0x857 JUMPI DUP3 DUP8 ADD MLOAD SWAP1 POP JUMPDEST PUSH2 0x861 DUP6 DUP3 PUSH2 0x7E6 JUMP JUMPDEST DUP7 SSTORE POP PUSH2 0x8C8 JUMP JUMPDEST PUSH1 0x1F NOT DUP5 AND PUSH2 0x877 DUP7 PUSH2 0x664 JUMP JUMPDEST PUSH0 JUMPDEST DUP3 DUP2 LT ISZERO PUSH2 0x89E JUMPI DUP5 DUP10 ADD MLOAD DUP3 SSTORE PUSH1 0x1 DUP3 ADD SWAP2 POP PUSH1 0x20 DUP6 ADD SWAP5 POP PUSH1 0x20 DUP2 ADD SWAP1 POP PUSH2 0x879 JUMP JUMPDEST DUP7 DUP4 LT ISZERO PUSH2 0x8BB JUMPI DUP5 DUP10 ADD MLOAD PUSH2 0x8B7 PUSH1 0x1F DUP10 AND DUP3 PUSH2 0x7CA JUMP JUMPDEST DUP4 SSTORE POP JUMPDEST PUSH1 0x1 PUSH1 0x2 DUP9 MUL ADD DUP9 SSTORE POP POP POP JUMPDEST POP POP POP POP POP POP JUMP INVALID LOG2 PUSH5 0x6970667358 0x22 SLT KECCAK256 DUP13 0xDF 0x2D PUSH6 0x42001EB7E11F PREVRANDAO 0x22 PUSH22 0x5B02EB637276E9C80C8468665F7C0FD7A18D64736F PUSH13 0x63430008160033000000000000 "
				},
				"gasEstimates": {
					"creation": {
						"codeDepositCost": "462000",
						"executionCost": "infinite",
						"totalCost": "infinite"
					},
					"external": {
						"count()": "2402",
						"decrement()": "26640",
						"increament()": "24541",
						"name()": "infinite",
						"setName(string)": "infinite"
					}
				},
				"methodIdentifiers": {
					"count()": "06661abd",
					"decrement()": "2baeceb7",
					"increament()": "58968e88",
					"name()": "06fdde03",
					"setName(string)": "c47f0027"
				}
			},
			"storageLayout": {
				"storage": [
					{
						"astId": 4,
						"contract": "Counter.sol:Counter",
						"label": "count",
						"offset": 0,
						"slot": "0",
						"type": "t_uint256"
					},
					{
						"astId": 7,
						"contract": "Counter.sol:Counter",
						"label": "name",
						"offset": 0,
						"slot": "1",
						"type": "t_string_storage"
					}
				],
				"types": {
					"t_string_storage": {
						"encoding": "bytes",
						"label": "string",
						"numberOfBytes": "32"
					},
					"t_uint256": {
						"encoding": "inplace",
						"label": "uint256",
						"numberOfBytes": "32"
					}
				}
			},
			"userdoc": {
				"kind": "user",
				"methods": {},
				"version": 1
			}
		}
	}
}